:020000040000FA
:06000000A1EF10F0120058
:020006001200E6
:0600080053EF0BF01200A3
:02000E000300ED
:1000100059220000DF00000002000000E62100007D
:100020006000000073000000842100000001000057
:04003000620000006A
:0C003400D9CFE6FFE1CFD9FFFD0EDBCFF6
:10004000E9FFFE0EDBCFEAFFEECFF6FFEFCFF7FFC3
:10005000040EF626000EF7220900F5CF00F0080086
:10006000F5CF01F0100EE66EE66A850EE66E1D0E07
:10007000E66E680EE66E1D0EE66E580EE66E1D0EFE
:10008000E66E480EE66E1D0EE66E04D001C0FAFF65
:100090000050F96EFBDF026E0A0EE15E0250FD0EAB
:1000A000DBCFE9FFFE0EDBCFEAFF060EE926000EEE
:1000B000EA22EF50010B32E0FD0EDBCFE9FFFE0E2E
:1000C000DBCFEAFFEECFF6FFEFCFF7FF040EF62609
:1000D000000EF7220900F5CF00F00800F5CF01F07F
:1000E000050EE66EE66AA90EE66E1D0EE66E9F0E22
:1000F000E66E1D0EE66E9A0EE66E1D0EE66E950E0F
:10010000E66E1D0EE66E04D001C0FAFF0050F96ED7
:10011000FBDF026E0A0EE15E025031D0FD0EDBCF36
:10012000E9FFFE0EDBCFEAFFEECFF6FFEFCFF7FFE2
:10013000040EF626000EF7220900F5CF00F00800A5
:10014000F5CF01F0050EE66EE66AA90EE66E1D0E0D
:10015000E66EAE0EE66E1D0EE66E9A0EE66E1D0E95
:10016000E66E950EE66E1D0EE66E04D001C0FAFF37
:100170000050F96EFBDF026E0A0EE15E0250E5529E
:10018000E7CFD9FF1200D9CFE6FFE1CFD9FFE65282
:10019000DF6A060EDF5C28E2FD0EDBCFE9FFFE0E14
:1001A000DBCFEAFFEECFF6FFEFCFF7FF200EF6260C
:1001B000000EF722F6CF02F0F7CF03F0DF50020D6A
:1001C0000250F324F66E0350F420F76E0900F5CFC9
:1001D00000F00800F5CF01F004D001C0FAFF005094
:1001E000F96EFBDFDF2AD5D7FD0EDBCFE9FFFE0E70
:1001F000DBCFEAFF060EE926000EEA22EF90E55279
:10020000E552E7CFD9FF1200D9CFE6FFE1CFD9FF02
:10021000070EE126040EDB6A050EDB6A640EF36E40
:10022000060EF3CFDBFFFD0EDBCFE9FFFE0EDBCFCB
:10023000EAFFEECFF6FFEFCFF7FF0C0EF626000E2B
:10024000F7220900F5CF00F00800F5CF01F004D047
:1002500001C0FAFF0050F96EFBDFE76E050EE7CF35
:10026000DBFF050EDB0401E043D1040EDB50020A84
:1002700068E0030A39E0010A01E031D1FD0EDBCF6D
:10028000E9FFFE0EDBCFEAFFEECFF6FFEFCFF7FF81
:100290000E0EF626000EF7220900F5CF00F008003A
:1002A000F5CF01F004D001C0FAFF0050F96EFBDF7A
:1002B000E76E030EE7CFDBFF240E006E030EDB506C
:1002C000005C11E1D9CF00F0DACF01F0040EDB5071
:1002D0000F010024E96E000E0120EA6E030EDBCF51
:1002E000EFFF040EDB2A04D1FD0EDBCFE9FFFE0E8B
:1002F000DBCFEAFFEECFF6FFEFCFF7FF0E0EF626CD
:10030000000EF7220900F5CF02F00800F5CF03F048
:1003100004D003C0FAFF0250F96EFBDFE66ED9CFBE
:1003200000F0DACF01F0040EDB500F010024E96E7B
:10033000000E0120EA6EE552E750EF6E040EDB2A54
:10034000D7D0FD0EDBCFE9FFFE0EDBCFEAFFEECF0D
:10035000F6FFEFCFF7FF0E0EF626000EF72209008C
:10036000F5CF02F00800F5CF03F004D003C0FAFF88
:100370000250F96EFBDFE66ED9CF00F0DACF01F064
:10038000040EDB500F010024E96E000E0120EA6E1E
:10039000E552E750EF6E040EDB2A010EDB50410AF6
:1003A00041E0780A2AE0090A01E08FD0020EDB5012
:1003B000330A16E0010A0EE0030A06E0010A01E032
:1003C00015D0060EDB6A18D0010EF36E060EF3CFC1
:1003D000DBFF12D0020EF36E060EF3CFDBFF0CD064
:1003E000030EF36E060EF3CFDBFF06D0640EF36E42
:1003F000060EF3CFDBFF00D06ED0020EDB50310AC9
:1004000009E0010A01E00CD0C80EF36E060EF3CF2E
:10041000DBFF07D0C90EF36E060EF3CFDBFF01D072
:1004200000D059D0020EDB50390A47E0010A3FE004
:100430000F0A37E0010A2FE0030A27E0010A1FE054
:10044000070A17E0010A0FE0030A08E0010A01E0C9
:100450003AD0640E0101006F016B36D0C80E010165
:10046000006F016B31D001012C0E006F010E016F86
:100470002BD00101900E006F010E016F25D00101FC
:10048000F40E006F010E016F1FD00101580E006FB6
:10049000020E016F19D00101BC0E006F020E016F38
:1004A00013D00101200E006F030E016F0DD001016A
:1004B000840E006F030E016F07D00101E80E006F7C
:1004C000030E016F01D000D006D0640EF36E060E4D
:1004D000F3CFDBFF00D0060EDB500BD009D0640E4B
:1004E000F36E060EF3CFDBFF060EDB5002D000D01A
:1004F0009AD6006E070EE15C02E2E16AE552E16E17
:100500000050E552E7CFD9FF1200D9CFE6FFE1CF87
:10051000D9FFE652FD0EDBCFE6FFFE0EDBCFE6FF96
:1005200073DEE552E552DF6EDF50006E016AC80EE1
:10053000001801E1015003E1000E0ED00CD0DF5095
:10054000006E016AC90E001801E1015002E1FF00CE
:1005500002D0010E01D0DED7E552E552E7CFD9FF38
:100560001200D9CFE6FFE1CFD9FF040EE126DF6A02
:10057000010EDB6A020EDB6A010EF36E030EF3CF8F
:10058000DBFFFD0EDBCFE9FFFE0EDBCFEAFFEECF98
:10059000F6FFEFCFF7FF140EF626000EF722090044
:1005A000F5CF00F00800F5CF01F0030EDBCFE6FF3A
:1005B00004D001C0FAFF0050F96EFBDFE552FD0EDA
:1005C000DBCFE9FFFE0EDBCFEAFFEECFF6FFEFCF8A
:1005D000F7FF160EF626000EF7220900F5CF00F001
:1005E0000800F5CF01F0030EDBCFE6FF010EE66E4B
:1005F000E66A04D001C0FAFF0050F96EFBDFE55255
:10060000E552E552FD0EDBCFE9FFFE0EDBCFEAFF40
:10061000EECFF6FFEFCFF7FF1A0EF626000EF72209
:100620000900F5CF00F00800F5CF01F000C1E6FFAA
:1006300001C1E6FF04D001C0FAFF0050F96EFBDFF4
:10064000E552E552FD0EDBCFE9FFFE0EDBCFEAFF00
:10065000EECFF6FFEFCFF7FF1E0EF626000EF722C5
:100660000900F5CF00F00800F5CF01F004D001C07B
:10067000FAFF0050F96EFBDFDE52F3CFDEFFF4CF5E
:10068000DDFFDD52010EDBCF00F0020EDBCF01F00B
:10069000013404E20050A308030E015402E2DF2AF1
:1006A00084D0FD0EDBCFE9FFFE0EDBCFEAFFEECFFD
:1006B000F6FFEFCFF7FF120EF626000EF722090025
:1006C000F5CF00F00800F5CF01F0000EE66EE66A07
:1006D00004D001C0FAFF0050F96EFBDFE552E5528D
:1006E000FD0EDBCFE9FFFE0EDBCFEAFFEECFF6FF1C
:1006F000EFCFF7FF0A0EF626000EF7220900F5CF1E
:1007000000F00800F5CF01F0030EDBCF02F0036A22
:1007100002BE0368050E0302F3CF03F0050E0202CA
:10072000F3CF02F0F45003263F0E0226010E0322FF
:1007300002C0E6FF03C0E6FF04D001C0FAFF00508C
:10074000F96EFBDFE552E552FD0EDBCFE6FFFE0E54
:10075000DBCFE6FFDADEE552E552000901E0F4D72F
:10076000DF6A010EF36E030EF3CFDBFFFD0EDBCF6E
:10077000E9FFFE0EDBCFEAFFEECFF6FFEFCFF7FF8C
:10078000120EF626000EF7220900F5CF00F0080041
:10079000F5CF01F0010EE66EE66A04D001C0FAFF63
:1007A0000050F96EFBDFE552E552FD0EDBCFE9FFAD
:1007B000FE0EDBCFEAFFEECFF6FFEFCFF7FF160E10
:1007C000F626000EF7220900F5CF00F00800F5CF5D
:1007D00001F0030EDBCFE6FF000EE66EE66A04D002
:1007E00001C0FAFF0050F96EFBDFE552E552E55219
:1007F000FD0EDBCFE9FFFE0EDBCFEAFFEECFF6FF0B
:10080000EFCFF7FF1A0EF626000EF7220900F5CFFC
:1008100000F00800F5CF01F000C1E6FF01C1E6FFDE
:1008200004D001C0FAFF0050F96EFBDFE552E5523B
:10083000FD0EDBCFE9FFFE0EDBCFEAFFEECFF6FFCA
:10084000EFCFF7FF1E0EF626000EF7220900F5CFB8
:1008500000F00800F5CF01F004D001C0FAFF00500D
:10086000F96EFBDFDE52F3CFDEFFF4CFDDFFDD52AA
:10087000010EDBCF00F0020EDBCF01F0D89001506B
:1008800004E64E0E005C020E015802E2DF2A84D01C
:10089000FD0EDBCFE9FFFE0EDBCFEAFFEECFF6FF6A
:1008A000EFCFF7FF120EF626000EF7220900F5CF64
:1008B00000F00800F5CF01F0000EE66EE66A04D005
:1008C00001C0FAFF0050F96EFBDFE552E552FD0E64
:1008D000DBCFE9FFFE0EDBCFEAFFEECFF6FFEFCF77
:1008E000F7FF0A0EF626000EF7220900F5CF00F0FA
:1008F0000800F5CF01F0030EDBCF02F0036A02BE61
:100900000368050E0302F3CF03F0050E0202F3CFD6
:1009100002F0F45003263F0E0226010E032202C00D
:10092000E6FF03C0E6FF04D001C0FAFF0050F96EF5
:10093000FBDFE552E552FD0EDBCFE6FFFE0EDBCF1F
:10094000E6FFE3DDE552E552000901E0F4D7DF6A96
:10095000010EF36E030EF3CFDBFFFD0EDBCFE9FFDD
:10096000FE0EDBCFEAFFEECFF6FFEFCFF7FF120E62
:10097000F626000EF7220900F5CF00F00800F5CFAB
:1009800001F0010EE66EE66A04D001C0FAFF0050E5
:10099000F96EFBDFE552E552060EDF5C01E285D021
:1009A000FD0EDBCFE9FFFE0EDBCFEAFFEECFF6FF59
:1009B000EFCFF7FF0A0EF626000EF7220900F5CF5B
:1009C00000F00800F5CF01F0030EDBCF02F0036A60
:1009D00002BE0368050E0302F3CF03F0050E020208
:1009E000F3CF02F0F4500326210E0226010E03225B
:1009F00002C0E6FF03C0E6FF04D001C0FAFF0050CA
:100A0000F96EFBDFE552E552FD0EDBCFE9FFFE0E8E
:100A1000DBCFEAFFEECFF6FFEFCFF7FF1A0EF62699
:100A2000000EF7220900F5CF00F00800F5CF01F025
:100A3000E80EE66E030EE66E04D001C0FAFF005029
:100A4000F96EFBDFE552E552DF6AFD0EDBCFE9FF11
:100A5000FE0EDBCFEAFFEECFF6FFEFCFF7FF120E71
:100A6000F626000EF7220900F5CF00F00800F5CFBA
:100A700001F0010EE66EE66A04D001C0FAFF0050F4
:100A8000F96EFBDFE552E552030EDB2A030EDBCFE6
:100A900000F0050EE76E0018E8AE02D0003403D077
:100AA000E750D880005401E201D06BD5040EE15C20
:100AB00002E2E16AE552E16EE552E7CFD9FF1200AA
:100AC000D9CFE6FFE1CFD9FF080EE126070EDB6A9A
:100AD0001C0EDE6E1D0EDD6EDECFF6FFDDCFF7FFE6
:100AE000080EF626000EF7220900F5CF00F00800E8
:100AF000F5CF01F0D9CFE6FFDACFE6FF04D001C091
:100B0000FAFF0050F96EFBDFE552E552DECFF6FF4B
:100B1000DDCFF7FF1C0EF626000EF7220900F5CFF9
:100B200000F00800F5CF01F0150EE66EE66A04D07D
:100B300001C0FAFF0050F96EFBDFE552E552DECF4F
:100B4000F6FFDDCFF7FF0A0EF626000EF7220900AA
:100B5000F5CF00F00800F5CF01F0030EE66E010EB0
:100B6000E66E04D001C0FAFF0050F96EFBDFE552DB
:100B7000E552DECFF6FFDDCFF7FF100EF626000EB2
:100B8000F7220900F5CF00F00800F5CF01F0010EC3
:100B9000E66EE66A04D001C0FAFF0050F96EFBDF92
:100BA000E552E552D9CFE6FFDACFE6FFAEDCE552FB
:100BB000E552000901E0F6D7DECFF6FFDDCFF7FF03
:100BC0000A0EF626000EF7220900F5CF00F0080005
:100BD000F5CF01F0080EE66E010EE66E04D001C0FE
:100BE000FAFF0050F96EFBDFE552E552D9CFE6FF80
:100BF000DACFE6FF04EC01F0E552E552C90A01E163
:100C00008FD2CA0A01E11CD2010A01E1A9D1030A6B
:100C100001E136D1010A01E085D2DECFF6FFDDCF5A
:100C2000F7FF0A0EF626000EF7220900F5CF00F0B6
:100C30000800F5CF01F00D0EE66E010EE66E04D051
:100C400001C0FAFF0050F96EFBDFE552E552DECF3E
:100C5000F6FFDDCFF7FF1C0EF626000EF722090087
:100C6000F5CF00F00800F5CF01F0150EE66EE66A4C
:100C700004D001C0FAFF0050F96EFBDFE552E552E7
:100C8000DECFF6FFDDCFF7FF1A0EF626000EF722B5
:100C90000900F5CF00F00800F5CF01F0E80EE66E90
:100CA000030EE66E04D001C0FAFF0050F96EFBDFC0
:100CB000E552E552DECFF6FFDDCFF7FF0A0EF6264E
:100CC000000EF7220900F5CF00F00800F5CF01F083
:100CD000120EE66E010EE66E04D001C0FAFF00505F
:100CE000F96EFBDFE552E552D9CFE6FFDACFE6FF3A
:100CF00038DCE552E552DECFF6FFDDCFF7FF1C0E04
:100D0000F626000EF7220900F5CF00F00800F5CF17
:100D100001F00E0EE66EE66A04D001C0FAFF005044
:100D2000F96EFBDFE552E552DECFF6FFDDCFF7FFD0
:100D30001A0EF626000EF7220900F5CF00F0080083
:100D4000F5CF01F0E80EE66E030EE66E04D001C0AA
:100D5000FAFF0050F96EFBDFE552E552DECFF6FFF9
:100D6000DDCFF7FF0A0EF626000EF7220900F5CFB9
:100D700000F00800F5CF01F0170EE66E010EE66EEA
:100D800004D001C0FAFF0050F96EFBDFE552E552D6
:100D9000D9CFE6FFDACFE6FFB1EC02F0E552E5523B
:100DA000DECFF6FFDDCFF7FF1C0EF626000EF72292
:100DB0000900F5CF00F00800F5CF01F0060EE66E51
:100DC000E66A04D001C0FAFF0050F96EFBDFE5527D
:100DD000E552DECFF6FFDDCFF7FF1A0EF626000E46
:100DE000F7220900F5CF00F00800F5CF01F0E80E7A
:100DF000E66E030EE66E04D001C0FAFF0050F96EF5
:100E0000FBDFE552E552DECFF6FFDDCFF7FF0A0E3E
:100E1000F626000EF7220900F5CF00F00800F5CF06
:100E200001F01C0EE66E010EE66E04D001C0FAFF62
:100E30000050F96EFBDFE552E552D9CFE6FFDACF7D
:100E4000E6FFB1EC02F0E552E552DECFF6FFDDCF72
:100E5000F7FF0A0EF626000EF7220900F5CF00F084
:100E60000800F5CF01F05D0EE66E010EE66E04D0CF
:100E700001C0FAFF0050F96EFBDFE552E55253D195
:100E8000DECFF6FFDDCFF7FF1C0EF626000EF722B1
:100E90000900F5CF00F00800F5CF01F0150EE66E61
:100EA000E66A04D001C0FAFF0050F96EFBDFE5529C
:100EB000E552DECFF6FFDDCFF7FF1A0EF626000E65
:100EC000F7220900F5CF00F00800F5CF01F0E80E99
:100ED000E66E030EE66E04D001C0FAFF0050F96E14
:100EE000FBDFE552E552DECFF6FFDDCFF7FF0A0E5E
:100EF000F626000EF7220900F5CF00F00800F5CF26
:100F000001F0120EE66E010EE66E04D001C0FAFF8B
:100F10000050F96EFBDFE552E552D9CFE6FFDACF9C
:100F2000E6FFB1EC02F0E552E552DECFF6FFDDCF91
:100F3000F7FF0A0EF626000EF7220900F5CF00F0A3
:100F40000800F5CF01F05D0EE66E010EE66E04D0EE
:100F500001C0FAFF0050F96EFBDFE552E552E3D025
:100F6000DECFF6FFDDCFF7FF1C0EF626000EF722D0
:100F70000900F5CF00F00800F5CF01F00E0EE66E87
:100F8000E66A04D001C0FAFF0050F96EFBDFE552BB
:100F9000E552DECFF6FFDDCFF7FF1A0EF626000E84
:100FA000F7220900F5CF00F00800F5CF01F0E80EB8
:100FB000E66E030EE66E04D001C0FAFF0050F96E33
:100FC000FBDFE552E552DECFF6FFDDCFF7FF0A0E7D
:100FD000F626000EF7220900F5CF00F00800F5CF45
:100FE00001F0170EE66E010EE66E04D001C0FAFFA6
:100FF0000050F96EFBDFE552E552D9CFE6FFDACFBC
:10100000E6FFB1EC02F0E552E552DECFF6FFDDCFB0
:10101000F7FF0A0EF626000EF7220900F5CF00F0C2
:101020000800F5CF01F05D0EE66E010EE66E04D00D
:1010300001C0FAFF0050F96EFBDFE552E55273D0B4
:10104000DECFF6FFDDCFF7FF1C0EF626000EF722EF
:101050000900F5CF00F00800F5CF01F0060EE66EAE
:10106000E66A04D001C0FAFF0050F96EFBDFE552DA
:10107000E552DECFF6FFDDCFF7FF1A0EF626000EA3
:10108000F7220900F5CF00F00800F5CF01F0E80ED7
:10109000E66E030EE66E04D001C0FAFF0050F96E52
:1010A000FBDFE552E552DECFF6FFDDCFF7FF0A0E9C
:1010B000F626000EF7220900F5CF00F00800F5CF64
:1010C00001F01C0EE66E010EE66E04D001C0FAFFC0
:1010D0000050F96EFBDFE552E552D9CFE6FFDACFDB
:1010E000E6FFB1EC02F0E552E552DECFF6FFDDCFD0
:1010F000F7FF0A0EF626000EF7220900F5CF00F0E2
:101100000800F5CF01F05D0EE66E010EE66E04D02C
:1011100001C0FAFF0050F96EFBDFE552E55203D043
:10112000FF0001D000D0DECFF6FFDDCFF7FF0A0EC3
:10113000F626000EF7220900F5CF00F00800F5CFE3
:1011400001F0080EE66E010EE66E04D001C0FAFF53
:101150000050F96EFBDFE552E55248D5080EE15C20
:1011600002E2E16AE552E16EE552E7CFD9FF1200F3
:10117000D9CFE6FFE1CFD9FF0A0EE126080EDB6AE0
:10118000090EDB6A010EDB6A020EDB6A010EDBCFA1
:1011900000F0020EDBCF01F0F50EDBCF02F0F60E11
:1011A000DBCF03F00250005C0350015801E3C9D0CB
:1011B000010EDBCF00F0020EDBCF01F0F70EDB50AB
:1011C0000024F66EF80EDB500120F76E0800070EC3
:1011D000F5CFDBFF010EDBCF00F0020EDBCF01F01D
:1011E000FD0EDB500024F66EFE0EDB500120F76E84
:1011F0000800030EF5CFDBFF010EDBCF00F0020E7F
:10120000DBCF01F0FB0EDB500024F66EFC0EDB5052
:101210000120F76E0800040EF5CFDBFF070EDB5050
:1012200002082BE1080EDBCF00F0DB2A090EDBCF32
:1012300001F001E3DB2AF90EDB500024F66EFA0E12
:10124000DB500120F76E0800050EF5CFDBFF080E1E
:10125000DBCF00F0DB2A090EDBCF01F001E3DB2A54
:10126000F90EDB500024F66EFA0EDB500120F76E0B
:101270000800060EF5CFDBFF15D0080EDBCF00F01F
:10128000DB2A090EDBCF01F001E3DB2AF90EDB508C
:101290000024F66EFA0EDB500120F76E0800050EF2
:1012A000F5CFDBFF52EC0CF048EC0CF0EAEC0CF064
:1012B000900EE66EABEC0CF0E552DF6EEAEC0CF053
:1012C000030EDBCFE6FFABEC0CF0E552DF6EEAEC91
:1012D0000CF0040EDBCFE6FFABEC0CF0E552DF6E5A
:1012E000EAEC0CF0070EDB50020813E1050EDBCF31
:1012F000E6FFABEC0CF0E552DF6EEAEC0CF0060E0C
:10130000DBCFE6FFABEC0CF0E552DF6EEAEC0CF065
:1013100009D0050EDBCFE6FFABEC0CF0E552DF6E3B
:10132000EAEC0CF041EC0CF0EAEC0CF0DFCF00F052
:10133000003401E3FF00010EDB2A020E01E3DB2A89
:1013400025D70A0EE15C02E2E16AE552E16EE55260
:10135000E7CFD9FF1200D9CFE6FFE1CFD9FF0A0EC0
:10136000E126080EDB6A090EDB6A010EDB6A020E5B
:10137000DB6A010EDBCF00F0020EDBCF01F0F50ED1
:10138000DBCF02F0F60EDBCF03F00250005C03501F
:10139000015801E3C3D0010EDBCF00F0020EDBCF1A
:1013A00001F0F70EDB500024E96EF80EDB5001204F
:1013B000EA6E070EEFCFDBFF010EDBCF00F0020E6F
:1013C000DBCF01F0FD0EDB500024E96EFE0EDB509A
:1013D0000120EA6E030EEFCFDBFF010EDBCF00F042
:1013E000020EDBCF01F0FB0EDB500024E96EFC0E99
:1013F000DB500120EA6E040EEFCFDBFF070EDB505F
:10140000020829E1080EDBCF00F0DB2A090EDBCF52
:1014100001F001E3DB2AF90EDB500024E96EFA0E3D
:10142000DB500120EA6E050EEFCFDBFF080EDBCFAD
:1014300000F0DB2A090EDBCF01F001E3DB2AF90E15
:10144000DB500024E96EFA0EDB500120EA6E060E36
:10145000EFCFDBFF14D0080EDBCF00F0DB2A090E44
:10146000DBCF01F001E3DB2AF90EDB500024E96E4B
:10147000FA0EDB500120EA6E050EEFCFDBFF52ECD7
:101480000CF048EC0CF0EAEC0CF0900EE66EABECD5
:101490000CF0E552DF6EEAEC0CF0030EDBCFE6FF5A
:1014A000ABEC0CF0E552DF6EEAEC0CF0040EDBCF97
:1014B000E6FFABEC0CF0E552DF6EEAEC0CF0070E49
:1014C000DB50020813E1050EDBCFE6FFABEC0CF0BE
:1014D000E552DF6EEAEC0CF0060EDBCFE6FFABEC7C
:1014E0000CF0E552DF6EEAEC0CF009D0050EDBCF14
:1014F000E6FFABEC0CF0E552DF6EEAEC0CF041ECF1
:101500000CF0EAEC0CF0DFCF00F0003401E3FF0058
:10151000010EDB2A020E01E3DB2A2BD70A0EE15C67
:1015200002E2E16AE552E16EE552E7CFD9FF12002F
:10153000D9CFE6FFE1CFD9FFF50EDBCFE6FFF60E00
:10154000DBCFE6FFF70EDBCFE6FFF80EDBCFE6FFE3
:10155000F90EDBCFE6FFFA0EDBCFE6FFFB0EDBCFAB
:10156000E6FFFC0EDBCFE6FFFD0EDBCFE6FFFE0E57
:10157000DBCFE6FFFDDD006E0A0EE15E0050E552B6
:10158000E7CFD9FF1200D9CFE6FFE1CFD9FFF50EA3
:10159000DBCFE6FFF60EDBCFE6FFF70EDBCFE6FF95
:1015A000F80EDBCFE6FFF90EDBCFE6FFFA0EDBCF5E
:1015B000E6FFFB0EDBCFE6FFFC0EDBCFE6FFFD0E0A
:1015C000DBCFE6FFFE0EDBCFE6FFC5DE006E0A0EC8
:1015D000E15E0050E552E7CFD9FF1200D9CFE6FF18
:0C15E000E1CFD9FFE552E7CFD9FF1200A0
:0415EC00D9CFE6FF6E
:1015F000E1CFD9FFE652DF6A320E0001945D02E1CD
:10160000000195930001945100080DE200019251F0
:10161000EA6A600FE96E000EEA22EFCFDFFF0001F9
:10162000922B00019407320E0001925D02E100014D
:10163000926B0001945102E100019591DF5000D0BE
:10164000E552E552E7CFD9FF120000019551010B99
:1016500000D01200CBDF00D01200F7DF00D0120064
:10166000D9CFE6FFE1CFD9FFFD0EDBCFCDF0FE0EE7
:10167000DBCFCEF0D58E0001CC0501E0FCD7000118
:10168000CC6BE552E7CFD9FF1200D9CFE6FFE1CF0F
:10169000D9FFFD0EDBCFDDF0FE0EDBCFDEF0E55235
:1016A000E7CFD9FF1200DACFE4FFE2CFDAFFE9CFCC
:1016B000E4FFEACFE4FFF6CFE4FFF7CFE4FFF5CF96
:1016C000E4FFF3CFE4FFF4CFE4FFFACFE4FF00EE52
:1016D00006F0020EE80403E3EECFE4FFFBD700EED2
:1016E00000F0040EE80403E3EECFE4FFFBD7E6527C
:1016F000D9CFE6FFE1CFD9FFE6529E50020B1EE0A4
:101700009D50020B1BE09E920001D12B000ED223B4
:101710000001D1510001DD5D0001D2510001DE590F
:1017200002E38B820BD00001F40ED15D010ED25981
:1017300004E30001D16BD26B01D08B929E50200B41
:101740002EE09D50200B2BE09E9A320E0001945DFE
:1017500003E10001958515D0320E0001945D11E280
:10176000EDEC0FF0E66E00019351EA6A600FE96E4E
:10177000000EEA22E552E750EF6E0001932B0001C4
:10178000942B320E0001945D02E100019583320E2C
:101790000001935D02E10001936B00019581F2A2CB
:1017A00004D00101010E026FF292F2A422D05F0E6A
:1017B000E66EF00EE66E0CEC10F0E552E552F29497
:1017C000CDC004F0CEC005F00406000E055A00019D
:1017D0000450CF5D0550D05905E20001CF2B000E1B
:1017E000D02307D0D59E0001CF6BD06B0001010E36
:1017F000CC6FE552E552E7CFD9FFE55200EE03F09A
:10180000040EE80403E3E5CFEDFFFBD700EE07F09D
:10181000020EE80403E3E5CFEDFFFBD7E5CFFAFFC7
:10182000E5CFF4FFE5CFF3FFE5CFF5FFE5CFF7FF19
:10183000E5CFF6FFE5CFEAFFE5CFE9FFE5CFDAFF39
:02184000110095
:0E184200010EE66EE66A45EC0BF0E552E5524B
:101850000001DF2B050E0001DF5D07E30000000043
:101860000000000000000000FF0012000001DF6B1C
:101870001200C58AC588C5A802D0E3DFFCD7F6DF11
:101880001200C584C5A402D0DCDFFCD7EFDF120054
:10189000C580C5A002D0D5DFFCD7E8DF000000007E
:1018A000000012001F0EC51403E1C750040B02E034
:1018B000C8DFF8D7DBDF00000000000012000F0EC9
:1018C000C614080804E00F0EC6140B0801E1C58613
:1018D000C7B002D0B6DFFCD7C9DFC95000D01200B4
:1018E000D9CFE6FFE1CFD9FFFC0EDBCFF3FFDB065C
:1018F000F35000092AE0E3DFE66EFD0EDBCFE9FFDF
:10190000DB2AFE0EDBCFEAFF01E3DB2AE552E750DC
:10191000EF6EC5A602D095DFFCD7A8DFA1A602D046
:10192000FF0E15D00F0EC614080804E00F0EC614E3
:101930000B080AE1FC0EDB5007E0C59AC588C5A874
:1019400002D07FDFFCD792DFCFD7000E00D0E55268
:10195000E7CFD9FF1200D9CFE6FFE1CFD9FFFE0EC6
:10196000DB50C96EC6AE03D0FF0E30D02FD00F0EA5
:10197000C614080816E00F0EC6140B0812E0C6883D
:101980009EB602D05EDFFCD771DFC750040B06E1C4
:10199000C750010B03E1FE0E19D002D0000E16D085
:1019A00015D00F0EC614080804E00F0EC6140B085D
:1019B0000DE1C7A002D045DFFCD758DF73DFC5AC0F
:1019C00003D0FE0E03D002D0000E00D0E552E7CFC8
:1019D000D9FF12009EB605D000000000000031DFE4
:1019E000F9D744DF0000000000009E961200800E30
:1019F000E66E080EE66E5FEC10F0E552E552270E3B
:081A0000C86E1200F4DF1200B1
:081A0800D9CFE6FFE1CFD9FFC1
:101A1000D950FD0FE96EFF0EDA20EA6E010EEE18C6
:101A200001E1ED5002E18B8001D08B90E552E7CFD0
:101A3000D9FF1200D9CFE6FFE1CFD9FFD950FD0F72
:101A4000E96EFF0EDA20EA6E010EEE1801E1ED50AC
:101A500002E1898801D08998E552E7CFD9FF1200C9
:101A60008250040B01E0010E00D01200D9CFE6FF36
:101A7000E1CFD9FFFC0EDB50050A45E0010A34E056
:101A8000070A23E0010A12E0030A01E04BD0D95013
:101A9000FD0FE96EFF0EDA20EA6E010EEE1801E18D
:101AA000ED5002E18A8401D08A943DD0D950FD0FD7
:101AB000E96EFF0EDA20EA6E010EEE1801E1ED503C
:101AC00002E18A8601D08A962ED0D950FD0FE96EA8
:101AD000FF0EDA20EA6E010EEE1801E1ED5002E190
:101AE0008A8201D08A921FD0D950FD0FE96EFF0E75
:101AF000DA20EA6E010EEE1801E1ED5002E18A886B
:101B000001D08A9810D0D950FD0FE96EFF0EDA206F
:101B1000EA6E010EEE1801E1ED5002E18A8001D07B
:101B20008A9001D000D0E552E7CFD9FF12007E6A3B
:101B30007F6A94908B9093948A9493968A969392CA
:101B40008A9293988A9893908A9092807E809282CB
:101B50007E8292847E8492867E8692887E8894920B
:0C1B60008B82929889881200E2DF12004C
:041B6C00C0EC10F0C9
:101B7000B8EC10F0000901E0FBD7AFEC10F000D09A
:101B80001200D9CFE6FFE1CFD9FFFE0EDB50050AE8
:101B900041E0010A31E0070A21E0010A11E0030AED
:101BA00001E046D0000EE66EE66A040EE66EAF0E69
:101BB000E66E68EC0FF0E552E552E552E55239D099
:101BC000000EE66EE66A0C0EE66EAF0EE66E68EC90
:101BD0000FF0E552E552E552E5522BD0000EE66ECD
:101BE000E66A140EE66EAF0EE66E68EC0FF0E55294
:101BF000E552E552E5521DD0000EE66EE66A1C0E77
:101C0000E66EAF0EE66E68EC0FF0E552E552E55277
:101C1000E5520FD0000EE66EE66A240EE66EAF0EB9
:101C2000E66E68EC0FF0E552E552E552E55201D060
:101C300000D0020EE66EE66A30EC0BF0E552E5529B
:101C4000C0EC10F0E552E7CFD9FF1200000EE66EAF
:101C5000E66A040EE66EAF0EE66E68EC0FF0E55233
:101C6000E552E552E552020EE66EE66A30EC0BF004
:0E1C7000E552E552C0EC10F01200E8DF120061
:021C7E000E0E48
:101C8000F66E000EF76E000EF86E00010900F550BA
:101C9000D86F0900F550D96F03E1D86701D03DD066
:101CA0000900F550D36F0900F550D46F0900F550C5
:101CB000D56F09000900F550E96E0900F550EA6E8C
:101CC000090009000900F550D66F0900F550D76FDB
:101CD00009000900F6CFDAF0F7CFDBF0F8CFDCF03F
:101CE000D3C0F6FFD4C0F7FFD5C0F8FF0001D6532C
:101CF00002E1D75307E00900F550EE6ED607F8E28F
:101D0000D707F9D7DAC0F6FFDBC0F7FFDCC0F8FF72
:0C1D10000001D807000ED95BBFD71200FD
:041D1C003400DC159E
:101D2000301586158601201E5A165416081A341AC4
:101D3000821B6C1A601A60168A166C1B041AD41F58
:101D4000421E681B7A1C7C210000000009C898FC18
:101D500000000009C99498C91A1A40408E582600FC
:101D600040401E8E72262672000100008101810112
:101D700048580002232800810081010302497200B3
:101D8000030000002002020202020201020202021B
:101D9000020201010209C8FC00008E3800404048E0
:101DA0003800012800810081010202020202483845
:081DB000000028008100810100
:081DB800ACA2FED70A0EE66E94
:101DC0007AEC10F0E552ACA2FED70D0EE66E7AEC7E
:101DD00010F0E5521200D9CFE6FFE1CFD9FFECDFDA
:101DE000FD0EDBCFE6FFFE0EDBCFE6FFA7EC0FF02C
:101DF000E552E552E552E7CFD9FF1200670EE66ED5
:101E0000E66A7C0EE66E23EC0FF0E552E552E552F1
:101E1000AB8E948E949C9D989E9A9F8A9D8A120068
:101E2000D9CFE6FFE1CFD9FFFD0EDBCFE6FFFE0EF7
:101E3000DBCFE6FFD0DFE552E552E552E7CFD9FF31
:061E40001200DCDF1200BD
:0A1E4600D9CFE6FFDACFE6FFE1CFC7
:101E5000D9FFE2CFDAFFAC6AAB6AFD0EDBB0AC882B
:101E6000DBA202D0AC8CAB8CDBB4AC8EDBA602D098
:101E7000AB8801D0AB8ADBB8AC849E98DBBAAB866A
:101E8000DBAC02D09D8A01D09D9A9E9ADBAE02D037
:101E90009D8801D09D98FB0EDB50AF6EFB0EFC0EB3
:101EA000DBCF01F001C000F0016A0050B06EAC8AD7
:101EB000AB8E949C948EAC50100B04E0AC50800B15
:101EC00001E1948CE552E5CFDAFFE7CFD9FF1200AC
:101ED000D9CFE6FFDACFE6FFE1CFD9FFE2CFDAFFD5
:101EE000C26AC16AC06AFC0EDB407F0B3C0BC26E4B
:101EF000FC0EDB38F00B300BC112FD0EDB50040D75
:101F0000F350380B016EFD0EDB380F0B070B006E24
:101F1000FD0EDB50800B00100110C06EFA0EDB507E
:101F20007E6EFA0EFB0EDBCF01F001C000F0016AFD
:101F300000507F6EFC0EDBAE03D09E9C9D8CF28C1D
:0E1F4000C280E552E5CFDAFFE7CFD9FF1200ED
:021F4E00D9CFE9
:101F5000E6FFDACFE6FFE1CFD9FFE2CFDAFFACA2AE
:101F6000FED7FC0EDBCFE9FFFD0EDBCFEAFFEF5023
:101F7000E66E7AEC10F0E552FC0EDBCFE9FFDB2ACF
:101F8000FD0EDBCFEAFF01E3DB2AEF50E8E1E5528B
:0A1F9000E5CFDAFFE7CFD9FF12001A
:061F9A00D08E9F82F28E42
:101FA000CD0EE66E44EC10F0E552090ECB6ECA84FD
:101FB0001200D08EF28EF1849F0EE66E28EC10F0A7
:101FC000E5525F0EE66EF00EE66E0CEC10F0E55298
:0A1FD000E5521200EEDFE1DF12001F
:061FDA00D9CFE6FFDACFCB
:101FE000E6FFE1CFD9FFE2CFDAFFE652F20E0001C1
:101FF000E117ABAC03D0E191ABB0E181ABB4E185CB
:10200000ABB2E187AE50DF6EDF50E552E552E5CF6F
:08201000DAFFE7CFD9FF12004F
:08201800D9CFE6FFDACFE6FFA5
:10202000E1CFD9FFE2CFDAFFE652E652FC0EDBCF7A
:10203000DEFFDBCFDDFF010EDB50D76EDF50D66E4B
:10204000E552E552E552E5CFDAFFE7CFD9FF1200BE
:10205000D9CFE6FFDACFE6FFE1CFD9FFE2CFDAFF53
:10206000FD0EDB507F0BD56ED76AD66AF294FD0E5B
:10207000DBAE02D0F28A01D0F29AD58EE552E5CFDE
:08208000DAFFE7CFD9FF1200DF
:08208800D9CFE6FFDACFE6FF35
:10209000E1CFD9FFE2CFDAFFFD0EDB50FB0BCA6EBA
:1020A000CC6A9E92FD0EDBAE02D09D8201D09D9245
:0E20B000CA84E552E5CFDAFFE7CFD9FF120070
:0220BE00D9CF78
:1020C000E6FFDACFE6FFE1CFD9FFE2CFDAFF3F0E3E
:1020D000C716C66AC56AFD0EDB50C612FC0EDB5081
:1020E000C71294869488C68AE552E5CFDAFFE7CF17
:0420F000D9FF120002
:0C20F400D9CFE6FFDACFE6FFE1CFD9FF3D
:10210000E2CFDAFFACAC04D0AC900001E1B3AC801C
:10211000FD0EDB50AD6EE552E5CFDAFFE7CFD9FF1C
:022120001200AB
:0E212200000EF36E00EE00F0060E01D8120063
:10213000EA6002D0EE6AFCD7F350E9601200EE6A62
:02214000FCD7CA
:0E21420015EE00F025EE00F0F86A079C3FEC69
:0E2150000EF003EC00F060EC05F0FBD712007F
:02215E00C4506B
:10216000036E026AC3500210F36E03C0F4FF120044
:0A217000C250020B01E0010E120044
:06217A001200FEDF12005E
:04218000C282120005
:0C2184000000002466303000246630317A
:102190000024663032002466303300246630340078
:1021A000246630350024663036002466313600243B
:1021B00066323600246633360024663436002466E0
:1021C0003536002466303700246631370024663205
:1021D00037002466333700246634370024663537E9
:0621E00000246630380007
:0A21E60000000000000000000000EF
:1021F00000000000000000000000000000000000DF
:1022000000000000000000000000000000000000CE
:1022100000000000000000000000000000000000BE
:1022200000000000000000000000000000000000AE
:10223000000000000000000000000000000000009E
:10224000000000000000000000000000000000008E
:0922500000000000000000000085
:02225900000083
:020000040030CA
:0100010002FC
:0100020019E4
:010003001EDE
:010006008079
:00000001FF
