:020000040000FA
:06000000F8EF13F01200FE
:020006001200E6
:06000800A9EF0EF012004A
:02000E000300ED
:1000100021290000E800000002000000AE280000D6
:1000200000010000730000003228000060000000A2
:040030007C00000050
:0C003400D9CFE6FFE1CFD9FFFD0EDBCFF6
:10004000E9FFFE0EDBCFEAFFEECFF6FFEFCFF7FFC3
:10005000040EF626000EF7220900F5CF00F0080086
:10006000F5CF01F0100EE66EE66A330EE66E240E52
:10007000E66E160EE66E240EE66E060EE66E240E94
:10008000E66EF60EE66E230EE66E04D001C0FAFFB1
:100090000050F96EFBDF026E0A0EE15E0250FD0EAB
:1000A000DBCFE9FFFE0EDBCFEAFF060EE926000EEE
:1000B000EA22EF50010B32E0FD0EDBCFE9FFFE0E2E
:1000C000DBCFEAFFEECFF6FFEFCFF7FF040EF62609
:1000D000000EF7220900F5CF00F00800F5CF01F07F
:1000E000050EE66EE66A570EE66E240EE66E4D0EBF
:1000F000E66E240EE66E480EE66E240EE66E430EA5
:10010000E66E240EE66E04D001C0FAFF0050F96ED0
:10011000FBDF026E0A0EE15E025031D0FD0EDBCF36
:10012000E9FFFE0EDBCFEAFFEECFF6FFEFCFF7FFE2
:10013000040EF626000EF7220900F5CF00F00800A5
:10014000F5CF01F0050EE66EE66A570EE66E240E58
:10015000E66E5C0EE66E240EE66E480EE66E240E2B
:10016000E66E430EE66E240EE66E04D001C0FAFF82
:100170000050F96EFBDF026E0A0EE15E0250E5529E
:10018000E7CFD9FF1200D9CFE6FFE1CFD9FFE65282
:10019000DF6A060EDF5C28E2FD0EDBCFE9FFFE0E14
:1001A000DBCFEAFFEECFF6FFEFCFF7FF220EF6260A
:1001B000000EF722F6CF02F0F7CF03F0DF50020D6A
:1001C0000250F324F66E0350F420F76E0900F5CFC9
:1001D00000F00800F5CF01F004D001C0FAFF005094
:1001E000F96EFBDFDF2AD5D7FD0EDBCFE9FFFE0E70
:1001F000DBCFEAFF060EE926000EEA22EF90E55279
:10020000E552E7CFD9FF1200D9CFE6FFE1CFD9FF02
:10021000E652030EDF6EFD0EDBCFE9FFFE0EDBCFF5
:10022000EAFFEECFF6FFEFCFF7FF200EF626000E27
:10023000F7220900F5CF00F00800F5CF01F0030E1A
:10024000E66EE66A630EE66E000EE66E600EE66E21
:10025000000EE66E04D001C0FAFF0050F96EFBDF1D
:10026000026E060EE15E0250FD0EDBCFE9FFFE0ED0
:10027000DBCFEAFFEECFF6FFEFCFF7FF200EF6263B
:10028000000EF7220900F5CF00F00800F5CF01F0CD
:10029000010EE66EE66A680EE66E000EE66ED9CFD7
:1002A000E6FFDACFE6FF04D001C0FAFF0050F96E96
:1002B000FBDF026E060EE15E0250E552E552E7CF2B
:1002C000D9FF1200D9CFE6FFE1CFD9FF070EE12613
:1002D000040EDB6A050EDB6A640EF36E060EF3CFC6
:1002E000DBFFFD0EDBCFE9FFFE0EDBCFEAFFEECF3B
:1002F000F6FFEFCFF7FF0C0EF626000EF7220900EF
:10030000F5CF00F00800F5CF01F004D001C0FAFFEE
:100310000050F96EFBDFE76E050EE7CFDBFF050E41
:10032000DB0401E087D3040EDB50020A68E0030A15
:1003300039E0010A01E075D3FD0EDBCFE9FFFE0EC7
:10034000DBCFEAFFEECFF6FFEFCFF7FF0E0EF6267C
:10035000000EF7220900F5CF00F00800F5CF01F0FC
:1003600004D001C0FAFF0050F96EFBDFE76E030E08
:10037000E7CFDBFF240E006E030EDB50005C11E1C3
:10038000D9CF00F0DACF01F0040EDB500F010024CA
:10039000E96E000E0120EA6E030EDBCFEFFF040EC4
:1003A000DB2A48D3FD0EDBCFE9FFFE0EDBCFEAFFF1
:1003B000EECFF6FFEFCFF7FF0E0EF626000EF72278
:1003C0000900F5CF02F00800F5CF03F004D003C018
:1003D000FAFF0250F96EFBDFE66ED9CF00F0DACFFC
:1003E00001F0040EDB500F010024E96E000E012025
:1003F000EA6EE552E750EF6E040EDB2A1BD3FD0ECA
:10040000DBCFE9FFFE0EDBCFEAFFEECFF6FFEFCF4B
:10041000F7FF0E0EF626000EF7220900F5CF02F0C8
:100420000800F5CF03F004D003C0FAFF0250F96EC4
:10043000FBDFE66ED9CF00F0DACF01F0040EDB501F
:100440000F010024E96E000E0120EA6EE552E7502C
:10045000EF6E040EDB2A010EDB50450A01E149D2A2
:10046000010A01E1B8D1070A01E127D1010A01E13E
:1004700096D0030A41E0780A2AE0090A01E0C7D2CF
:10048000020EDB50330A16E0010A0EE0030A06E012
:10049000010A01E015D0060EDB6A18D0010EF36EDA
:1004A000060EF3CFDBFF12D0020EF36E060EF3CF73
:1004B000DBFF0CD0030EF36E060EF3CFDBFF06D08E
:1004C000640EF36E060EF3CFDBFF00D0A6D2020E51
:1004D000DB50310A09E0010A01E00CD0C80EF36ECE
:1004E000060EF3CFDBFF07D0C90EF36E060EF3CF77
:1004F000DBFF01D000D091D2020EDB50390A47E079
:10050000010A3FE00F0A37E0010A2FE0030A27E063
:10051000010A1FE0070A17E0010A0FE0030A08E0DA
:10052000010A01E03AD0640E0001666F676B36D0B5
:10053000C80E0001666F676B31D000012C0E666F2C
:10054000010E676F2BD00001900E666F010E676F72
:1005500025D00001F40E666F010E676F1FD00001F9
:10056000580E666F020E676F19D00001BC0E666FE1
:10057000020E676F13D00001200E666F030E676FC7
:100580000DD00001840E666F030E676F07D0000167
:10059000E80E666F030E676F01D000D03ED2020EE8
:1005A000DB50460A5BE0030A55E0010A4FE0070A08
:1005B00049E0010A43E0030A3DE0780A37E0010A16
:1005C00031E00F0A2BE0010A25E0030A1FE0010ACF
:1005D00019E0070A13E0010A0DE0030A07E0010A27
:1005E00001E040D00001800E686F3DD00001810E17
:1005F000686F39D00001820E686F35D00001830E1C
:10060000686F31D00001840E686F2DD00001850E17
:10061000686F29D00001860E686F25D00001870E13
:10062000686F21D00001880E686F1DD00001890E0F
:10063000686F19D000018A0E686F15D000018B0E0B
:10064000686F11D000018C0E686F0DD000018D0E07
:10065000686F09D000018E0E686F05D000018F0E03
:10066000686F01D000D0FD0EDBCFE6FFFE0EDBCFC2
:10067000E6FFCADDE552E552FD0EDBCFE9FFFE0ED7
:10068000DBCFEAFFEECFF6FFEFCFF7FF1A0EF6262D
:10069000000EF7220900F5CF00F00800F5CF01F0B9
:1006A000F40EE66E010EE66E04D001C0FAFF0050B3
:1006B000F96EFBDFE552E552B0D1020EDB50460A7F
:1006C0005BE0030A55E0010A4FE0070A49E0010A2E
:1006D00043E0030A3DE0780A37E0010A31E00F0AFF
:1006E0002BE0010A25E0030A1FE0010A19E0070ACE
:1006F00013E0010A0DE0030A07E0010A01E040D01F
:100700000001900E686F3DD00001910E686F39D0E6
:100710000001920E686F35D00001930E686F31D0E2
:100720000001940E686F2DD00001950E686F29D0DE
:100730000001960E686F25D00001970E686F21D0DA
:100740000001980E686F1DD00001990E686F19D0D6
:1007500000019A0E686F15D000019B0E686F11D0D2
:1007600000019C0E686F0DD000019D0E686F09D0CE
:1007700000019E0E686F05D000019F0E686F01D0CA
:1007800000D0FD0EDBCFE6FFFE0EDBCFE6FF3CDD4B
:10079000E552E552FD0EDBCFE9FFFE0EDBCFEAFFAF
:1007A000EECFF6FFEFCFF7FF1A0EF626000EF72278
:1007B0000900F5CF00F00800F5CF01F0F40EE66E69
:1007C000010EE66E04D001C0FAFF0050F96EFBDFA7
:1007D000E552E55222D1020EDB50460A5BE0030AE5
:1007E00055E0010A4FE0070A49E0010A43E0030A25
:1007F0003DE0780A37E0010A31E00F0A2BE0010AF8
:1008000025E0030A1FE0010A19E0070A13E0010AC4
:100810000DE0030A07E0010A01E040D00001A00E4C
:10082000686F3DD00001A10E686F39D00001A20EA3
:10083000686F35D00001A30E686F31D00001A40E9F
:10084000686F2DD00001A50E686F29D00001A60E9B
:10085000686F25D00001A70E686F21D00001A80E97
:10086000686F1DD00001A90E686F19D00001AA0E93
:10087000686F15D00001AB0E686F11D00001AC0E8F
:10088000686F0DD00001AD0E686F09D00001AE0E8B
:10089000686F05D00001AF0E686F01D000D0FD0E6B
:1008A000DBCFE6FFFE0EDBCFE6FFAEDCE552E55226
:1008B000FD0EDBCFE9FFFE0EDBCFEAFFEECFF6FF4A
:1008C000EFCFF7FF1A0EF626000EF7220900F5CF3C
:1008D00000F00800F5CF01F0F40EE66E010EE66EB2
:1008E00004D001C0FAFF0050F96EFBDFE552E5527B
:1008F00094D0020EDB50460A5BE0030A55E0010A81
:100900004FE0070A49E0010A43E0030A3DE0780AA4
:1009100037E0010A31E00F0A2BE0010A25E0030A63
:100920001FE0010A19E0070A13E0010A0DE0030ABB
:1009300007E0010A01E040D00001B00E686F3DD031
:100940000001B10E686F39D00001B20E686F35D06A
:100950000001B30E686F31D00001B40E686F2DD066
:100960000001B50E686F29D00001B60E686F25D062
:100970000001B70E686F21D00001B80E686F1DD05E
:100980000001B90E686F19D00001BA0E686F15D05A
:100990000001BB0E686F11D00001BC0E686F0DD056
:1009A0000001BD0E686F09D00001BE0E686F05D052
:1009B0000001BF0E686F01D000D0FD0EDBCFE6FF57
:1009C000FE0EDBCFE6FF20DCE552E552FD0EDBCF6D
:1009D000E9FFFE0EDBCFEAFFEECFF6FFEFCFF7FF2A
:1009E0001A0EF626000EF7220900F5CF00F00800D7
:1009F000F5CF01F0F40EE66E010EE66E04D001C0F4
:100A0000FAFF0050F96EFBDFE552E55206D0640EA6
:100A1000F36E060EF3CFDBFF00D0060EDB500BD0DB
:100A200009D0640EF36E060EF3CFDBFF060EDB502B
:100A300002D000D056D4006E070EE15C02E2E16AFB
:100A4000E552E16E0050E552E7CFD9FF1200D9CF51
:100A5000E6FFE1CFD9FFE652FD0EDBCFE6FFFE0E4B
:100A6000DBCFE6FF2FDCE552E552DF6EDF50006E94
:100A7000016AC80E001801E1015003E1000E0ED01A
:100A80000CD0DF50006E016AC90E001801E1015060
:100A900002E1FF0002D0010E01D0DED7E552E5529F
:100AA000E7CFD9FF1200D9CFE6FFE1CFD9FF040E7F
:100AB000E126DF6A010EDB6A020EDB6A010EF36ECD
:100AC000030EF3CFDBFFFD0EDBCFE9FFFE0EDBCF26
:100AD000EAFFEECFF6FFEFCFF7FF140EF626000E7B
:100AE000F7220900F5CF00F00800F5CF01F0030E62
:100AF000DBCFE6FF04D001C0FAFF0050F96EFBDF48
:100B0000E552FD0EDBCFE9FFFE0EDBCFEAFFEECFB5
:100B1000F6FFEFCFF7FF160EF626000EF7220900BC
:100B2000F5CF00F00800F5CF01F0030EDBCFE6FFB4
:100B3000010EE66EE66A04D001C0FAFF0050F96EBD
:100B4000FBDFE552E552E552FD0EDBCFE9FFFE0E7D
:100B5000DBCFEAFFEECFF6FFEFCFF7FF1A0EF62658
:100B6000000EF7220900F5CF00F00800F5CF01F0E4
:100B700066C0E6FF67C0E6FF04D001C0FAFF005080
:100B8000F96EFBDFE552E552FD0EDBCFE9FFFE0E0D
:100B9000DBCFEAFFEECFF6FFEFCFF7FF1E0EF62614
:100BA000000EF7220900F5CF00F00800F5CF01F0A4
:100BB00004D001C0FAFF0050F96EFBDFDE52F3CF24
:100BC000DEFFF4CFDDFFDD52010EDBCF00F0020EC1
:100BD000DBCF01F0013404E20050A308030E0154FE
:100BE00002E2DF2AC9D0FD0EDBCFE9FFFE0EDBCF2C
:100BF000EAFFEECFF6FFEFCFF7FF120EF626000E5C
:100C0000F7220900F5CF00F00800F5CF01F0000E43
:100C1000E66EE66A04D001C0FAFF0050F96EFBDF11
:100C2000E552E552FD0EDBCFE9FFFE0EDBCFEAFF1A
:100C3000EECFF6FFEFCFF7FF0A0EF626000EF722F3
:100C40000900F5CF00F00800F5CF01F0030EDBCF6F
:100C500002F0036A02BE0368060E0302F3CF03F03C
:100C6000060E0202F3CF02F0F4500326B20E022663
:100C7000000E032202C0E6FF03C0E6FF04D001C05D
:100C8000FAFF0050F96EFBDFE552E552FD0EDBCFB7
:100C9000E9FFFE0EDBCFEAFFEECFF6FFEFCFF7FF67
:100CA000160EF626000EF7220900F5CF00F0080018
:100CB000F5CF01F0030EDBCFE6FF000EE66EE66A2D
:100CC00004D001C0FAFF0050F96EFBDFE552E55297
:100CD000E552DF6A030EDB2A030EDBCF00F0050EC0
:100CE000E76E0018E8AE02D0003403D0E750D88099
:100CF000005441E2FD0EDBCFE9FFFE0EDBCFEAFF41
:100D0000EECFF6FFEFCFF7FF1A0EF626000EF72212
:100D10000900F5CF00F00800F5CF01F0F40EE66E03
:100D2000010EE66E04D001C0FAFF0050F96EFBDF41
:100D3000E552E552FD0EDBCFE9FFFE0EDBCFEAFF09
:100D4000EECFF6FFEFCFF7FF120EF626000EF722DA
:100D50000900F5CF00F00800F5CF01F0010EE66EB6
:100D6000E66A04D001C0FAFF0050F96EFBDFE552DD
:100D7000E552C8D101D0A7D6FD0EDBCFE9FFFE0EAC
:100D8000DBCFEAFFEECFF6FFEFCFF7FF160EF6262A
:100D9000000EF7220900F5CF00F00800F5CF01F0B2
:100DA000030EDBCFE6FF000EE66EE66A04D001C05C
:100DB000FAFF0050F96EFBDFE552E552E552FD0EF9
:100DC000DBCFE9FFFE0EDBCFEAFFEECFF6FFEFCF82
:100DD000F7FF1A0EF626000EF7220900F5CF00F0F5
:100DE0000800F5CF01F066C0E6FF67C0E6FF04D05B
:100DF00001C0FAFF0050F96EFBDFE552E552FD0E2F
:100E0000DBCFE9FFFE0EDBCFEAFFEECFF6FFEFCF41
:100E1000F7FF1E0EF626000EF7220900F5CF00F0B0
:100E20000800F5CF01F004D001C0FAFF0050F96EC0
:100E3000FBDFDE52F3CFDEFFF4CFDDFFDD52010E2C
:100E4000DBCF00F0020EDBCF01F0D890015004E6BA
:100E50004E0E005C020E015802E2DF2AC9D0FD0EE0
:100E6000DBCFE9FFFE0EDBCFEAFFEECFF6FFEFCFE1
:100E7000F7FF120EF626000EF7220900F5CF00F05C
:100E80000800F5CF01F0000EE66EE66A04D001C05E
:100E9000FAFF0050F96EFBDFE552E552FD0EDBCFA5
:100EA000E9FFFE0EDBCFEAFFEECFF6FFEFCFF7FF55
:100EB0000A0EF626000EF7220900F5CF00F0080012
:100EC000F5CF01F0030EDBCF02F0036A02BE036828
:100ED000060E0302F3CF03F0060E0202F3CF02F078
:100EE000F4500326B20E0226000E032202C0E6FFD3
:100EF00003C0E6FF04D001C0FAFF0050F96EFBDF2B
:100F0000E552E552FD0EDBCFE9FFFE0EDBCFEAFF37
:100F1000EECFF6FFEFCFF7FF160EF626000EF72204
:100F20000900F5CF00F00800F5CF01F0030EDBCF8C
:100F3000E6FF000EE66EE66A04D001C0FAFF00503C
:100F4000F96EFBDFE552E552E552DF6A030EDB2A5C
:100F5000030EDBCF00F0050EE76E0018E8AE02D0FE
:100F6000003403D0E750D880005441E2FD0EDBCFBF
:100F7000E9FFFE0EDBCFEAFFEECFF6FFEFCFF7FF84
:100F80001A0EF626000EF7220900F5CF00F0080031
:100F9000F5CF01F0F40EE66E010EE66E04D001C04E
:100FA000FAFF0050F96EFBDFE552E552FD0EDBCF94
:100FB000E9FFFE0EDBCFEAFFEECFF6FFEFCFF7FF44
:100FC000120EF626000EF7220900F5CF00F00800F9
:100FD000F5CF01F0010EE66EE66A04D001C0FAFF1B
:100FE0000050F96EFBDFE552E5528CD001D06BD595
:100FF000060EDF5C01E285D0FD0EDBCFE9FFFE0EC1
:10100000DBCFEAFFEECFF6FFEFCFF7FF0A0EF626B3
:10101000000EF7220900F5CF00F00800F5CF01F02F
:10102000030EDBCF02F0036A02BE0368060E030262
:10103000F3CF03F0060E0202F3CF02F0F4500326C2
:101040008E0E0226000E032202C0E6FF03C0E6FF5A
:1010500004D001C0FAFF0050F96EFBDFE552E55203
:10106000DF6AFD0EDBCFE9FFFE0EDBCFEAFFEECF3E
:10107000F6FFEFCFF7FF1A0EF626000EF722090053
:10108000F5CF00F00800F5CF01F0F40EE66E010E8A
:10109000E66E04D001C0FAFF0050F96EFBDFE552A6
:1010A000E552030EDB2A030EDBCF00F0050EE76EE0
:1010B0000018E8AE02D0003403D0E750D8800054C6
:1010C00020E2FD0EDBCFE9FFFE0EDBCFEAFFEECF25
:1010D000F6FFEFCFF7FF120EF626000EF7220900FB
:1010E000F5CF00F00800F5CF01F0010EE66EE66ADC
:1010F00004D001C0FAFF0050F96EFBDFE552E55263
:1011000001D0E1D4040EE15C02E2E16AE552E16E55
:10111000E552E7CFD9FF1200D9CFE6FFE1CFD9FFE3
:10112000080EE126070EDB6AC80EDE6E230EDD6EAA
:10113000DECFF6FFDDCFF7FF080EF626000EF72212
:101140000900F5CF00F00800F5CF01F0D9CFE6FF98
:10115000DACFE6FF04D001C0FAFF0050F96EFBDFE2
:10116000E552E552DECFF6FFDDCFF7FF1C0EF62687
:10117000000EF7220900F5CF00F00800F5CF01F0CE
:10118000150EE66EE66A04D001C0FAFF0050F96E53
:10119000FBDFE552E552DECFF6FFDDCFF7FF0A0EAB
:1011A000F626000EF7220900F5CF00F00800F5CF73
:1011B00001F06A0EE66E000EE66E04D001C0FAFF82
:1011C0000050F96EFBDFE552E552DECFF6FFDDCFD2
:1011D000F7FF100EF626000EF7220900F5CF00F0FB
:1011E0000800F5CF01F0010EE66EE66A04D001C0FA
:1011F000FAFF0050F96EFBDFE552E552D9CFE6FF6A
:10120000DACFE6FF24DCE552E552000901E0F6D72B
:10121000DECFF6FFDDCFF7FF0A0EF626000EF7222F
:101220000900F5CF00F00800F5CF01F0700EE66E72
:10123000000EE66E04D001C0FAFF0050F96EFBDF2D
:10124000E552E552D9CFE6FFDACFE6FF62EC01F0D6
:10125000E552E552C90A01E13BD2CA0A01E1C8D10F
:10126000010A01E155D1030A01E1E2D0010A01E0DE
:1012700031D2DECFF6FFDDCFF7FF0A0EF626000EE5
:10128000F7220900F5CF00F00800F5CF01F0760E47
:10129000E66E000EE66E04D001C0FAFF0050F96E53
:1012A000FBDFE552E552DECFF6FFDDCFF7FF1C0E88
:1012B000F626000EF7220900F5CF00F00800F5CF62
:1012C00001F0150EE66EE66A04D001C0FAFF005088
:1012D000F96EFBDFE552E552DECFF6FFDDCFF7FF1B
:1012E0001A0EF626000EF7220900F5CF00F00800CE
:1012F000F5CF01F0E80EE66E030EE66E04D001C0F5
:10130000FAFF0050F96EFBDFE552E552DECFF6FF43
:10131000DDCFF7FF0A0EF626000EF7220900F5CF03
:1013200000F00800F5CF01F07C0EE66E000EE66ED0
:1013300004D001C0FAFF0050F96EFBDFE552E55220
:10134000D9CFE6FFDACFE6FF53EC05F0E552E552E0
:10135000DECFF6FFDDCFF7FF1C0EF626000EF722DC
:101360000900F5CF00F00800F5CF01F00E0EE66E93
:10137000E66A04D001C0FAFF0050F96EFBDFE552C7
:10138000E552DECFF6FFDDCFF7FF1A0EF626000E90
:10139000F7220900F5CF00F00800F5CF01F0E80EC4
:1013A000E66E030EE66E04D001C0FAFF0050F96E3F
:1013B000FBDFE552E552DECFF6FFDDCFF7FF0A0E89
:1013C000F626000EF7220900F5CF00F00800F5CF51
:1013D00001F0820EE66E000EE66E04D001C0FAFF48
:1013E0000050F96EFBDFE552E552D9CFE6FFDACFC8
:1013F000E6FF53EC05F0E552E552DECFF6FFDDCF18
:10140000F7FF0A0EF626000EF7220900F5CF00F0CE
:101410000800F5CF01F0D60EE66E000EE66E04D0A1
:1014200001C0FAFF0050F96EFBDFE552E55253D1DF
:10143000DECFF6FFDDCFF7FF1C0EF626000EF722FB
:101440000900F5CF00F00800F5CF01F0150EE66EAB
:10145000E66A04D001C0FAFF0050F96EFBDFE552E6
:10146000E552DECFF6FFDDCFF7FF1A0EF626000EAF
:10147000F7220900F5CF00F00800F5CF01F0E80EE3
:10148000E66E030EE66E04D001C0FAFF0050F96E5E
:10149000FBDFE552E552DECFF6FFDDCFF7FF0A0EA8
:1014A000F626000EF7220900F5CF00F00800F5CF70
:1014B00001F07C0EE66E000EE66E04D001C0FAFF6D
:1014C0000050F96EFBDFE552E552D9CFE6FFDACFE7
:1014D000E6FF53EC05F0E552E552DECFF6FFDDCF37
:1014E000F7FF0A0EF626000EF7220900F5CF00F0EE
:1014F0000800F5CF01F0D60EE66E000EE66E04D0C1
:1015000001C0FAFF0050F96EFBDFE552E552E3D06F
:10151000DECFF6FFDDCFF7FF1C0EF626000EF7221A
:101520000900F5CF00F00800F5CF01F00E0EE66ED1
:10153000E66A04D001C0FAFF0050F96EFBDFE55205
:10154000E552DECFF6FFDDCFF7FF1A0EF626000ECE
:10155000F7220900F5CF00F00800F5CF01F0E80E02
:10156000E66E030EE66E04D001C0FAFF0050F96E7D
:10157000FBDFE552E552DECFF6FFDDCFF7FF0A0EC7
:10158000F626000EF7220900F5CF00F00800F5CF8F
:1015900001F0820EE66E000EE66E04D001C0FAFF86
:1015A0000050F96EFBDFE552E552D9CFE6FFDACF06
:1015B000E6FF53EC05F0E552E552DECFF6FFDDCF56
:1015C000F7FF0A0EF626000EF7220900F5CF00F00D
:1015D0000800F5CF01F0D60EE66E000EE66E04D0E0
:1015E00001C0FAFF0050F96EFBDFE552E55273D0FF
:1015F000DECFF6FFDDCFF7FF1C0EF626000EF7223A
:101600000900F5CF00F00800F5CF01F0060EE66EF8
:10161000E66A04D001C0FAFF0050F96EFBDFE55224
:10162000E552DECFF6FFDDCFF7FF1A0EF626000EED
:10163000F7220900F5CF00F00800F5CF01F0E80E21
:10164000E66E030EE66E04D001C0FAFF0050F96E9C
:10165000FBDFE552E552DECFF6FFDDCFF7FF0A0EE6
:10166000F626000EF7220900F5CF00F00800F5CFAE
:1016700001F0880EE66E000EE66E04D001C0FAFF9F
:101680000050F96EFBDFE552E552D9CFE6FFDACF25
:10169000E6FF53EC05F0E552E552DECFF6FFDDCF75
:1016A000F7FF0A0EF626000EF7220900F5CF00F02C
:1016B0000800F5CF01F0D60EE66E000EE66E04D0FF
:1016C00001C0FAFF0050F96EFBDFE552E55203D08E
:1016D000FF0001D000D0B6D5080EE15C02E2E16A5D
:0C16E000E552E16EE552E7CFD9FF1200A1
:0416EC00D9CFE6FF6D
:1016F000E1CFD9FF0A0EE126080EDB6A090EDB6A8C
:10170000010EDB6A020EDB6A010EDBCF00F0020E77
:10171000DBCF01F0F50EDBCF02F0F60EDBCF03F0EE
:101720000250005C0350015801E3C9D0010EDBCF29
:1017300000F0020EDBCF01F0F70EDB500024F66E56
:10174000F80EDB500120F76E0800070EF5CFDBFF27
:10175000010EDBCF00F0020EDBCF01F0FD0EDB50FF
:101760000024F66EFE0EDB500120F76E0800030E1B
:10177000F5CFDBFF010EDBCF00F0020EDBCF01F077
:10178000FB0EDB500024F66EFC0EDB500120F76EE2
:101790000800040EF5CFDBFF070EDB5002082BE13B
:1017A000080EDBCF00F0DB2A090EDBCF01F001E3EE
:1017B000DB2AF90EDB500024F66EFA0EDB50012016
:1017C000F76E0800050EF5CFDBFF080EDBCF00F04B
:1017D000DB2A090EDBCF01F001E3DB2AF90EDB5037
:1017E0000024F66EFA0EDB500120F76E0800060E9C
:1017F000F5CFDBFF15D0080EDBCF00F0DB2A090E9A
:10180000DBCF01F001E3DB2AF90EDB500024F66E9A
:10181000FA0EDB500120F76E0800050EF5CFDBFF56
:10182000A8EC0FF09EEC0FF040EC10F0900EE66E7E
:1018300001EC10F0E552DF6E40EC10F0030EDBCF50
:10184000E6FF01EC10F0E552DF6E40EC10F0040E04
:10185000DBCFE6FF01EC10F0E552DF6E40EC10F05C
:10186000070EDB50020813E1050EDBCFE6FF01ECAB
:1018700010F0E552DF6E40EC10F0060EDBCFE6FF15
:1018800001EC10F0E552DF6E40EC10F009D0050ECF
:10189000DBCFE6FF01EC10F0E552DF6E40EC10F01C
:1018A00097EC0FF040EC10F0DFCF00F0003401E3D4
:1018B000FF00010EDB2A020E01E3DB2A25D70A0E08
:1018C000E15C02E2E16AE552E16EE552E7CFD9FF61
:1018D0001200D9CFE6FFE1CFD9FF0A0EE126080EAC
:1018E000DB6A090EDB6A010EDB6A020EDB6A010E9F
:1018F000DBCF00F0020EDBCF01F0F50EDBCF02F004
:10190000F60EDBCF03F00250005C0350015801E3F8
:10191000C3D0010EDBCF00F0020EDBCF01F0F70EDB
:10192000DB500024E96EF80EDB500120EA6E070E52
:10193000EFCFDBFF010EDBCF00F0020EDBCF01F0BB
:10194000FD0EDB500024E96EFE0EDB500120EA6E36
:10195000030EEFCFDBFF010EDBCF00F0020EDBCF7B
:1019600001F0FB0EDB500024E96EFC0EDB50012081
:10197000EA6E040EEFCFDBFF070EDB50020829E111
:10198000080EDBCF00F0DB2A090EDBCF01F001E30C
:10199000DB2AF90EDB500024E96EFA0EDB50012041
:1019A000EA6E050EEFCFDBFF080EDBCF00F0DB2A7F
:1019B000090EDBCF01F001E3DB2AF90EDB50002436
:1019C000E96EFA0EDB500120EA6E060EEFCFDBFF68
:1019D00014D0080EDBCF00F0DB2A090EDBCF01F0BC
:1019E00001E3DB2AF90EDB500024E96EFA0EDB502E
:1019F0000120EA6E050EEFCFDBFFA8EC0FF09EECA6
:101A00000FF040EC10F0900EE66E01EC10F0E55295
:101A1000DF6E40EC10F0030EDBCFE6FF01EC10F0C0
:101A2000E552DF6E40EC10F0040EDBCFE6FF01EC78
:101A300010F0E552DF6E40EC10F0070EDB500208AC
:101A400013E1050EDBCFE6FF01EC10F0E552DF6E8F
:101A500040EC10F0060EDBCFE6FF01EC10F0E55293
:101A6000DF6E40EC10F009D0050EDBCFE6FF01EC95
:101A700010F0E552DF6E40EC10F097EC0FF040EC08
:101A800010F0DFCF00F0003401E3FF00010EDB2A8D
:101A9000020E01E3DB2A2BD70A0EE15C02E2E16AC7
:101AA000E552E16EE552E7CFD9FF1200D9CFE6FF4C
:101AB000E1CFD9FF050EE126030EDB6A040EDB6AD7
:101AC000030EDBCF00F0040EDBCF01F0F90EDBCF0D
:101AD00002F0FA0EDBCF03F00250005C0350015815
:101AE00054E2030EDBCF00F0040EDBCF01F0FD0E5D
:101AF000DB500024E96EFE0EDB500120EA6E010E81
:101B0000EFCFDBFF030EDBCF00F0040EDBCF01F0E5
:101B1000FB0EDB500024E96EFC0EDB500120EA6E68
:101B2000020EEFCFDBFF000000000000A8EC0FF07A
:101B30009EEC0FF040EC10F0300EE66E01EC10F071
:101B4000E552DF6E40EC10F0010EDBCFE6FF01EC5A
:101B500010F0E552DF6E40EC10F0020EDBCFE6FF36
:101B600001EC10F0E552DF6E40EC10F097EC0FF056
:101B700040EC10F0DFCF00F0003401E3FF00030E73
:101B8000DB2A040E01E3DB2A9BD7050EE15C02E2AF
:101B9000E16AE552E16EE552E7CFD9FF1200D9CFF5
:101BA000E6FFE1CFD9FFF50EDBCFE6FFF60EDBCF88
:101BB000E6FFF70EDBCFE6FFF80EDBCFE6FFF90E10
:101BC000DBCFE6FFFA0EDBCFE6FFFB0EDBCFE6FF57
:101BD000FC0EDBCFE6FFFD0EDBCFE6FFFE0EDBCF1C
:101BE000E6FF84DD006E0A0EE15E0050E552E7CFAD
:101BF000D9FF1200D9CFE6FFE1CFD9FFF50EDBCF39
:101C0000E6FFF60EDBCFE6FFF70EDBCFE6FFF80EC2
:101C1000DBCFE6FFF90EDBCFE6FFFA0EDBCFE6FF08
:101C2000FB0EDBCFE6FFFC0EDBCFE6FFFD0EDBCFCE
:101C3000E6FFFE0EDBCFE6FF4CDE006E0A0EE15E35
:101C40000050E552E7CFD9FF1200D9CFE6FFE1CF30
:101C5000D9FFF90EDBCFE6FFFA0EDBCFE6FFFB0E76
:101C6000DBCFE6FFFC0EDBCFE6FFFD0EDBCFE6FFB2
:101C7000FE0EDBCFE6FF1ADF006E060EE15E0050BF
:101C8000E552E7CFD9FF1200D9CFE6FFE1CFD9FF68
:081C9000E552E7CFD9FF120075
:081C9800D9CFE6FFE1CFD9FF2F
:101CA000E652DF6A320E0101345D02E10101359333
:101CB0000101345100080DE201013251EA6A000FBE
:101CC000E96E010EEA22EFCFDFFF0101322B0101A5
:101CD0003407320E0101325D02E10101326B010174
:101CE000345102E101013591DF5000D0E552E55257
:101CF000E7CFD9FF120001013551010B00D01200CE
:101D0000CBDF00D01200F7DF00D01200D9CFE6FF02
:101D1000E1CFD9FFFD0EDBCF6DF1FE0EDBCF6EF113
:101D2000D58E01016C0501E0FCD701016C6BE55219
:101D3000E7CFD9FF1200D9CFE6FFE1CFD9FFFD0EE3
:101D4000DBCFE6F0FE0EDBCFE7F0E552E7CFD9FFC1
:101D50001200DACFE4FFE2CFDAFFE9CFE4FFEACF07
:101D6000E4FFF6CFE4FFF7CFE4FFF5CFE4FFF3CFD6
:101D7000E4FFF4CFE4FFFACFE4FF00EE06F0020E3A
:101D8000E80403E3EECFE4FFFBD700EE00F0040E1F
:101D9000E80403E3EECFE4FFFBD7E652D9CFE6FF3A
:101DA000E1CFD9FFE6529E50020B1EE09D50020B80
:101DB0001BE09E920101712B000E722301017151F3
:101DC0000001E65D010172510001E75902E38B82D7
:101DD0000BD00101F40E715D010E725904E3010193
:101DE000716B726B01D08B929E50200B2EE09D5038
:101DF000200B2BE09E9A320E0101345D03E10101BC
:101E0000358515D0320E0101345D11E244EC13F03A
:101E1000E66E01013351EA6A000FE96E010EEA2213
:101E2000E552E750EF6E0101332B0101342B320EE6
:101E30000101345D02E101013583320E0101335DA0
:101E400002E10101336B01013581F2A204D00001EE
:101E5000010E696FF292F2A422D05F0EE66EF00ED0
:101E6000E66E63EC13F0E552E552F2946DC104F0B6
:101E70006EC105F00406000E055A010104506F5DA5
:101E80000550705905E201016F2B000E702307D039
:101E9000D59E01016F6B706B0101010E6C6FE552F5
:101EA000E552E7CFD9FFE55200EE03F0040EE80457
:101EB00003E3E5CFEDFFFBD700EE07F0020EE804E9
:101EC00003E3E5CFEDFFFBD7E5CFFAFFE5CFF4FF66
:101ED000E5CFF3FFE5CFF5FFE5CFF7FFE5CFF6FF61
:0E1EE000E5CFEAFFE5CFE9FFE5CFDAFF11001D
:021EEE00010EE3
:101EF000E66EE66A86EC0EF0E552E5520001E82B4C
:101F0000050E0001E85D07E300000000000000008E
:101F100000000000FF0012000001E86B1200C58AFB
:101F2000C588C5A802D0E3DFFCD7F6DF1200C58460
:101F3000C5A402D0DCDFFCD7EFDF1200C580C5A04E
:101F400002D0D5DFFCD7E8DF00000000000012005F
:101F50001F0EC51403E1C750040B02E0C8DFF8D719
:101F6000DBDF00000000000012000F0EC61408089E
:101F700004E00F0EC6140B0801E1C586C7B002D0FD
:101F8000B6DFFCD7C9DFC95000D01200D9CFE6FFB9
:101F9000E1CFD9FFFC0EDBCFF3FFDB06F3500009E6
:101FA0002AE0E3DFE66EFD0EDBCFE9FFDB2AFE0E63
:101FB000DBCFEAFF01E3DB2AE552E750EF6EC5A66F
:101FC00002D095DFFCD7A8DFA1A602D0FF0E15D066
:101FD0000F0EC614080804E00F0EC6140B080AE121
:101FE000FC0EDB5007E0C59AC588C5A802D07FDF8C
:101FF000FCD792DFCFD7000E00D0E552E7CFD9FF54
:102000001200D9CFE6FFE1CFD9FFFE0EDB50C96E3B
:10201000C6AE03D0FF0E30D02FD00F0EC614080866
:1020200016E00F0EC6140B0812E0C6889EB602D04A
:102030005EDFFCD771DFC750040B06E1C750010B10
:1020400003E1FE0E19D002D0000E16D015D00F0EEF
:10205000C614080804E00F0EC6140B080DE1C7A053
:1020600002D045DFFCD758DF73DFC5AC03D0FE0ECE
:1020700003D002D0000E00D0E552E7CFD9FF120006
:102080009EB605D000000000000031DFF9D744DF24
:102090000000000000009E961200800EE66E080E02
:1020A000E66EB6EC13F0E552E552270EC86E12004C
:0420B000F4DF120047
:0C20B400D9CFE6FFE1CFD9FFD950FD0FD6
:1020C000E96EFF0EDA20EA6E010EEE1801E1ED5026
:1020D00002E18B8001D08B90E552E7CFD9FF12004F
:1020E000D9CFE6FFE1CFD9FFD950FD0FE96EFF0E42
:1020F000DA20EA6E010EEE1801E1ED5002E1898866
:1021000001D08998E552E7CFD9FF12008250040B25
:1021100001E0010E00D01200D9CFE6FFE1CFD9FFD8
:10212000FC0EDB50050A45E0010A34E0070A23E013
:10213000010A12E0030A01E04BD0D950FD0FE96E0D
:10214000FF0EDA20EA6E010EEE1801E1ED5002E119
:102150008A8401D08A943DD0D950FD0FE96EFF0EDC
:10216000DA20EA6E010EEE1801E1ED5002E18A86F6
:1021700001D08A962ED0D950FD0FE96EFF0EDA20DD
:10218000EA6E010EEE1801E1ED5002E18A8201D003
:102190008A921FD0D950FD0FE96EFF0EDA20EA6E49
:1021A000010EEE1801E1ED5002E18A8801D08A9813
:1021B00010D0D950FD0FE96EFF0EDA20EA6E010E45
:1021C000EE1801E1ED5002E18A8001D08A9001D041
:1021D00000D0E552E7CFD9FF12007E6A7F6A949063
:1021E0008B9093948A9493968A9693928A929398DA
:1021F0008A9893908A9092807E8092827E82928446
:102200007E8492867E8692887E8894928B82929833
:0822100089881200E2DF1200D0
:0822180017EC14F00FEC14F0B8
:10222000000901E0FBD706EC14F000D01200D9CF72
:10223000E6FFE1CFD9FFFE0EDB50050A41E0010ABF
:1022400031E0070A21E0010A11E0030A01E046D06B
:10225000000EE66EE66A040EE66EAF0EE66EBFECAA
:1022600012F0E552E552E552E55239D0000EE66E25
:10227000E66A0C0EE66EAF0EE66EBFEC12F0E552AB
:10228000E552E552E5522BD0000EE66EE66A140EDA
:10229000E66EAF0EE66EBFEC12F0E552E552E55287
:1022A000E5521DD0000EE66EE66A1C0EE66EAF0E1D
:1022B000E66EBFEC12F0E552E552E552E5520FD062
:1022C000000EE66EE66A240EE66EAF0EE66EBFEC1A
:1022D00012F0E552E552E552E55201D000D00A0E67
:1022E000E66EE66A86EC0EF0E552E55217EC14F065
:1022F000E552E7CFD9FF1200000EE66EE66A040E43
:10230000E66EAF0EE66EBFEC12F0E552E552E55216
:10231000E552020EE66EE66A86EC0EF0E552E552F4
:0A23200017EC14F01200E8DF1200C1
:06232A000E0EF66E000E1F
:10233000F76E000EF86E00010900F550E16F09001C
:10234000F550E26F03E1E16701D03DD00900F5509F
:10235000DC6F0900F550DD6F0900F550DE6F0900F4
:102360000900F550E96E0900F550EA6E0900090010
:102370000900F550DF6F0900F550E06F0900090012
:10238000F6CFE3F0F7CFE4F0F8CFE5F0DCC0F6FFEE
:10239000DDC0F7FFDEC0F8FF0001DF5302E1E053CC
:1023A00007E00900F550EE6EDF07F8E2E007F9D725
:1023B000E3C0F6FFE4C0F7FFE5C0F8FF0001E10766
:0823C000000EE25BBFD7120022
:0823C8003400881C9E1BF41B6D
:1023D0008601CE24061D001DB420E0202E221821E7
:1023E0000C210C1D361D18224A1CB0208226F02418
:1023F000142226232A280000000009C898FC0000A7
:102400000009C99498C91A1A40408E5826004040C5
:102410001E8E72262672000100008101810148583B
:102420000002232800810081010302497200030099
:102430000000200202020202020102020202020263
:1024400001010209C8FC00008E38004040483800F5
:1024500001280081008101020202020248380000C6
:062460002800810081014B
:0A246600ACA2FED70A0EE66ED1EC20
:1024700013F0E552ACA2FED70D0EE66ED1EC13F0D0
:10248000E5521200D9CFE6FFE1CFD9FFECDFFD0E18
:10249000DBCFE6FFFE0EDBCFE6FFFEEC12F0E552EF
:1024A000E552E552E7CFD9FF1200670EE66EE66A05
:1024B0007C0EE66E7AEC12F0E552E552E552AB8EF8
:1024C000948E949C9D989E9A9F8A9D8A1200D9CF43
:1024D000E6FFE1CFD9FFFD0EDBCFE6FFFE0EDBCF3F
:1024E000E6FFD0DFE552E552E552E7CFD9FF120013
:0424F000DCDF12001B
:0C24F400D9CFE6FFDACFE6FFE1CFD9FF39
:10250000E2CFDAFFAC6AAB6AFD0EDBB0AC88DBA2CF
:1025100002D0AC8CAB8CDBB4AC8EDBA602D0AB882B
:1025200001D0AB8ADBB8AC849E98DBBAAB86DBAC5F
:1025300002D09D8A01D09D9A9E9ADBAE02D09D88E2
:1025400001D09D98FB0EDB50AF6EFB0EFC0EDBCF77
:1025500001F001C000F0016A0050B06EAC8AAB8E91
:10256000949C948EAC50100B04E0AC50800B01E1B5
:0E257000948CE552E5CFDAFFE7CFD9FF1200D9
:02257E00D9CFB3
:10258000E6FFDACFE6FFE1CFD9FFE2CFDAFFC26A9A
:10259000C16AC06AFC0EDB407F0B3C0BC26EFC0EB6
:1025A000DB38F00B300BC112FD0EDB50040DF35085
:1025B000380B016EFD0EDB380F0B070B006EFD0EA6
:1025C000DB50800B00100110C06EFA0EDB507E6EE7
:1025D000FA0EFB0EDBCF01F001C000F0016A0050E3
:1025E0007F6EFC0EDBAE03D09E9C9D8CF28CC28075
:0C25F000E552E5CFDAFFE7CFD9FF12007B
:0425FC00D9CFE6FF4E
:10260000DACFE6FFE1CFD9FFE2CFDAFFACA2FED707
:10261000FC0EDBCFE9FFFD0EDBCFEAFFEF50E66EED
:10262000D1EC13F0E552FC0EDBCFE9FFDB2AFD0E07
:10263000DBCFEAFF01E3DB2AEF50E8E1E552E5CF2B
:08264000DAFFE7CFD9FF120019
:08264800D08E9F82F28ECD0EB0
:10265000E66E9BEC13F0E552090ECB6ECA841200B5
:10266000D08EF28EF1849F0EE66E7FEC13F0E55271
:102670005F0EE66EF00EE66E63EC13F0E552E55287
:082680001200EEDFE1DF1200A1
:08268800D9CFE6FFDACFE6FF2F
:10269000E1CFD9FFE2CFDAFFE652F20E0001EA17EE
:1026A000ABAC03D0EA91ABB0EA81ABB4EA85ABB294
:1026B000EA87AE50DF6EDF50E552E552E5CFDAFF34
:0626C000E7CFD9FF120074
:0A26C600D9CFE6FFDACFE6FFE1CF3F
:1026D000D9FFE2CFDAFFE652E652FC0EDBCFDEFF97
:1026E000DBCFDDFF010EDB50D76EDF50D66EE5523B
:0E26F000E552E552E5CFDAFFE7CFD9FF120041
:0226FE00D9CF32
:10270000E6FFDACFE6FFE1CFD9FFE2CFDAFFFD0E39
:10271000DB507F0BD56ED76AD66AF294FD0EDBAE26
:1027200002D0F28A01D0F29AD58EE552E5CFDAFFD7
:06273000E7CFD9FF120003
:0A273600D9CFE6FFDACFE6FFE1CFCE
:10274000D9FFE2CFDAFFFD0EDB50FB0BCA6ECC6A7D
:102750009E92FD0EDBAE02D09D8201D09D92CA8476
:0C276000E552E5CFDAFFE7CFD9FF120009
:04276C00D9CFE6FFDC
:10277000DACFE6FFE1CFD9FFE2CFDAFF3F0EC7168F
:10278000C66AC56AFD0EDB50C612FC0EDB50C712CE
:1027900094869488C68AE552E5CFDAFFE7CFD9FF61
:0227A000120025
:0E27A200D9CFE6FFDACFE6FFE1CFD9FFE2CFD5
:1027B000DAFFACAC04D0AC900001EAB3AC80FD0E03
:1027C000DB50AD6EE552E5CFDAFFE7CFD9FF12005F
:1027D000000EF36E00EE00F0060E01D81200EA6063
:1027E00002D0EE6AFCD7F350E9601200EE6AFCD723
:1027F00015EE00F025EE00F0F86A079C95EC11F05C
:0C28000003EC00F08CEC08F0FBD7120099
:04280C00C450036E43
:0E281000026AC3500210F36E03C0F4FF120000
:02281E00C250A6
:08282000020B01E0010E1200A1
:062828001200FEDF1200A9
:02282E00C28264
:02283000120094
:0E2832000102030000FF0000000024663030A9
:102840004000246630314000246630324000246667
:102850003033400024663034400024663035400078
:102860002466303640002466313640002466323615
:102870004000246633364000246634364000246627
:10288000353640002466303740002466313740003A
:1028900024663237400024663337400024663437DC
:0E28A000400024663537400024663038400082
:0228AE00000028
:1028B0000000000000000000000000000000000018
:1028C0000000000000000000000000000000000008
:1028D00000000000000000000000000000000000F8
:1028E00000000000000000000000000000000000E8
:1028F00000000000000000000000000000000000D8
:1029000000000000000000000000000000000000C7
:1029100000000000000000000000000000000000B7
:0129200000B6
:022921000000B4
:020000040030CA
:0100010002FC
:0100020019E4
:010003001EDE
:010006008079
:00000001FF
