:020000040000FA
:0600000006EF09F01200FA
:020006001200E6
:060008003EEF05F01200BE
:02000E000300ED
:10001000D6120000FC000000020000006512000083
:10002000600000007100000044120000D1000000D8
:0400300021000000AB
:0C003400D9CFE6FFE1CFD9FFFD0EDBCFF6
:10004000E9FFFE0EDBCFEAFFEECFF6FFEFCFF7FFC3
:10005000040EF626000EF7220900F5CF00F0080086
:10006000F5CF01F0100EE66EE66A7D0EE66E0F0E1D
:10007000E66E600EE66E0F0EE66E500EE66E0F0E2A
:10008000E66E400EE66E0F0EE66E04D001C0FAFF7B
:100090000050F96EFBDF026E0A0EE15E0250FD0EAB
:1000A000DBCFE9FFFE0EDBCFEAFF060EE926000EEE
:1000B000EA22EF50010B32E0FD0EDBCFE9FFFE0E2E
:1000C000DBCFEAFFEECFF6FFEFCFF7FF040EF62609
:1000D000000EF7220900F5CF00F00800F5CF01F07F
:1000E000050EE66EE66AA10EE66E0F0EE66E970E40
:1000F000E66E0F0EE66E920EE66E0F0EE66E8D0E3B
:10010000E66E0F0EE66E04D001C0FAFF0050F96EE5
:10011000FBDF026E0A0EE15E025031D0FD0EDBCF36
:10012000E9FFFE0EDBCFEAFFEECFF6FFEFCFF7FFE2
:10013000040EF626000EF7220900F5CF00F00800A5
:10014000F5CF01F0050EE66EE66AA10EE66E0F0E23
:10015000E66EA60EE66E0F0EE66E920EE66E0F0EC1
:10016000E66E8D0EE66E0F0EE66E04D001C0FAFF4D
:100170000050F96EFBDF026E0A0EE15E0250E5529E
:10018000E7CFD9FF1200D9CFE6FFE1CFD9FFE65282
:10019000DF6A040EDF5C28E2FD0EDBCFE9FFFE0E16
:1001A000DBCFEAFFEECFF6FFEFCFF7FF1C0EF62610
:1001B000000EF722F6CF02F0F7CF03F0DF50020D6A
:1001C0000250F324F66E0350F420F76E0900F5CFC9
:1001D00000F00800F5CF01F004D001C0FAFF005094
:1001E000F96EFBDFDF2AD5D7FD0EDBCFE9FFFE0E70
:1001F000DBCFEAFF060EE926000EEA22EF90E55279
:10020000E552E7CFD9FF1200D9CFE6FFE1CFD9FF02
:100210000D0EE126090EDB6A0B0EDB6A0C0EDB6AA3
:100220001C0EDE6E0F0EDD6EDECFF6FFDDCFF7FFAC
:10023000080EF626000EF7220900F5CF00F00800A0
:10024000F5CF01F0D9CFE6FFDACFE6FF04D001C049
:10025000FAFF0050F96EFBDFE552E5520001D15183
:1002600001E1FCD7DECFF6FFDDCFF7FF160EF62655
:10027000000EF7220900F5CF00F00800F5CF01F0DD
:10028000010EE66EE66A04D001C0FAFF0050F96E76
:10029000FBDFE552E552DECFF6FFDDCFF7FF1A0EAA
:1002A000F626000EF7220900F5CF00F00800F5CF82
:1002B00001F0F40EE66E010EE66E04D001C0FAFF06
:1002C0000050F96EFBDFE552E552DECFF6FFDDCFE1
:1002D000F7FF160EF626000EF7220900F5CF00F004
:1002E0000800F5CF01F0000EE66EE66A04D001C00A
:1002F000FAFF0050F96EFBDFE552E552DECFF6FF64
:10030000DDCFF7FF1A0EF626000EF7220900F5CF13
:1003100000F00800F5CF01F0F40EE66E010EE66E77
:1003200004D001C0FAFF0050F96EFBDFE552E55240
:1003300099D7DECFF6FFDDCFF7FF100EF626000EC1
:10034000F7220900F5CF00F00800F5CF01F0010E0B
:10035000E66EE66A04D001C0FAFF0050F96EFBDFDA
:10036000E552E552DECFF6FFDDCFF7FF1A0EF62697
:10037000000EF7220900F5CF00F00800F5CF01F0DC
:10038000640EE66EE66A04D001C0FAFF0050F96E12
:10039000FBDFE552E552010E006EDECFF6FFDDCF4A
:1003A000F7FF180EF626000EF7220900F5CF01F030
:1003B0000800F5CF02F000C0E6FF04D002C0FAFF4B
:1003C0000150F96EFBDFE552E7CF00F0005C03E17E
:1003D0000C0EDB2A19D0DECFF6FFDDCFF7FF120EB1
:1003E000F626000EF7220900F5CF00F00800F5CF41
:1003F00001F0000EE66EE66A04D001C0FAFF00507C
:10040000F96EFBDFE552E552DECFF6FFDDCFF7FFF9
:10041000100EF626000EF7220900F5CF00F00800B6
:10042000F5CF01F0000EE66EE66A04D001C0FAFFD7
:100430000050F96EFBDFE552E552DECFF6FFDDCF6F
:10044000F7FF1A0EF626000EF7220900F5CF00F08E
:100450000800F5CF01F0640EE66EE66A04D001C034
:10046000FAFF0050F96EFBDFE552E552DECFF6FFF2
:10047000DDCFF7FF180EF626000EF7220900F5CFA4
:1004800000F00800F5CF01F004D001C0FAFF0050E1
:10049000F96EFBDFE76E0B0EE7CFDBFF010E006EA0
:1004A000DECFF6FFDDCFF7FF180EF626000EF7229F
:1004B0000900F5CF01F00800F5CF02F000C0E6FF1B
:1004C00004D002C0FAFF0150F96EFBDFE552E7CF1E
:1004D00000F0005C19E1DECFF6FFDDCFF7FF120E72
:1004E000F626000EF7220900F5CF00F00800F5CF40
:1004F00001F0000EE66EE66A04D001C0FAFF00507B
:10050000F96EFBDFE552E5520A0EF36E0C0EDBCFFF
:10051000F4FFF350F45C1AE3DECFF6FFDDCFF7FF14
:10052000140EF626000EF7220900F5CF00F00800A1
:10053000F5CF01F0000EE66EE66A04D001C0FAFFC6
:100540000050F96EFBDFE552E552FFD7F2D60D0EF3
:10055000E15C02E2E16AE552E16EE552E7CFD9FFE4
:02056000120087
:0E056200D9CFE6FFE1CFD9FF0A0EE126080E41
:10057000DB6A090EDB6A010EDB6A020EDB6A010E22
:10058000DBCF00F0020EDBCF01F0F50EDBCF02F087
:10059000F60EDBCF03F00250005C0350015801E37C
:1005A000C9D0010EDBCF00F0020EDBCF01F0F70E59
:1005B000DB500024F66EF80EDB500120F76E0800C9
:1005C000070EF5CFDBFF010EDBCF00F0020EDBCF15
:1005D00001F0FD0EDB500024F66EFE0EDB50012014
:1005E000F76E0800030EF5CFDBFF010EDBCF00F046
:1005F000020EDBCF01F0FB0EDB500024F66EFC0E8A
:10060000DB500120F76E0800040EF5CFDBFF070E6C
:10061000DB5002082BE1080EDBCF00F0DB2A090ECD
:10062000DBCF01F001E3DB2AF90EDB500024F66E8C
:10063000FA0EDB500120F76E0800050EF5CFDBFF48
:10064000080EDBCF00F0DB2A090EDBCF01F001E35F
:10065000DB2AF90EDB500024F66EFA0EDB50012087
:10066000F76E0800060EF5CFDBFF15D0080EDBCFC6
:1006700000F0DB2A090EDBCF01F001E3DB2AF90EE3
:10068000DB500024F66EFA0EDB500120F76E0800F6
:10069000050EF5CFDBFF1EEC06F014EC06F0B6EC11
:1006A00006F0900EE66E77EC06F0E552DF6EB6ECE3
:1006B00006F0030EDBCFE6FF77EC06F0E552DF6EC7
:1006C000B6EC06F0040EDBCFE6FF77EC06F0E55261
:1006D000DF6EB6EC06F0070EDB50020813E1050EE4
:1006E000DBCFE6FF77EC06F0E552DF6EB6EC06F006
:1006F000060EDBCFE6FF77EC06F0E552DF6EB6ECD8
:1007000006F009D0050EDBCFE6FF77EC06F0E552E8
:10071000DF6EB6EC06F00DEC06F0B6EC06F0DFCFBF
:1007200000F0003401E3FF00010EDB2A020E01E3BA
:10073000DB2A25D70A0EE15C02E2E16AE552E16EAE
:10074000E552E7CFD9FF1200D9CFE6FFE1CFD9FFBD
:100750000A0EE126080EDB6A090EDB6A010EDB6A6F
:10076000020EDB6A010EDBCF00F0020EDBCF01F0E0
:10077000F50EDBCF02F0F60EDBCF03F00250005C8B
:100780000350015801E3C3D0010EDBCF00F0020E8D
:10079000DBCF01F0F70EDB500024E96EF80EDB50E2
:1007A0000120EA6E070EEFCFDBFF010EDBCF00F07A
:1007B000020EDBCF01F0FD0EDB500024E96EFE0ED1
:1007C000DB500120EA6E030EEFCFDBFF010EDBCF23
:1007D00000F0020EDBCF01F0FB0EDB500024E96ECF
:1007E000FC0EDB500120EA6E040EEFCFDBFF070E9C
:1007F000DB50020829E1080EDBCF00F0DB2A090EEE
:10080000DBCF01F001E3DB2AF90EDB500024E96EB7
:10081000FA0EDB500120EA6E050EEFCFDBFF080E6B
:10082000DBCF00F0DB2A090EDBCF01F001E3DB2A8E
:10083000F90EDB500024E96EFA0EDB500120EA6E5F
:10084000060EEFCFDBFF14D0080EDBCF00F0DB2A63
:10085000090EDBCF01F001E3DB2AF90EDB500024A7
:10086000E96EFA0EDB500120EA6E050EEFCFDBFFDA
:100870001EEC06F014EC06F0B6EC06F0900EE66EF8
:1008800077EC06F0E552DF6EB6EC06F0030EDBCF38
:10089000E6FF77EC06F0E552DF6EB6EC06F0040EEC
:1008A000DBCFE6FF77EC06F0E552DF6EB6EC06F044
:1008B000070EDB50020813E1050EDBCFE6FF77ECF5
:1008C00006F0E552DF6EB6EC06F0060EDBCFE6FF73
:1008D00077EC06F0E552DF6EB6EC06F009D0050EB7
:1008E000DBCFE6FF77EC06F0E552DF6EB6EC06F004
:1008F0000DEC06F0B6EC06F0DFCF00F0003401E3BB
:10090000FF00010EDB2A020E01E3DB2A2BD70A0EC1
:10091000E15C02E2E16AE552E16EE552E7CFD9FF20
:100920001200D9CFE6FFE1CFD9FFF50EDBCFE6FF0E
:10093000F60EDBCFE6FFF70EDBCFE6FFF80EDBCFE0
:10094000E6FFF90EDBCFE6FFFA0EDBCFE6FFFB0E8C
:10095000DBCFE6FFFC0EDBCFE6FFFD0EDBCFE6FFD5
:10096000FE0EDBCFE6FFFDDD006E0A0EE15E0050FD
:10097000E552E7CFD9FF1200D9CFE6FFE1CFD9FF8B
:10098000F50EDBCFE6FFF60EDBCFE6FFF70EDBCF93
:10099000E6FFF80EDBCFE6FFF90EDBCFE6FFFA0E3F
:1009A000DBCFE6FFFB0EDBCFE6FFFC0EDBCFE6FF87
:1009B000FD0EDBCFE6FFFE0EDBCFE6FFC5DE006EF1
:1009C0000A0EE15E0050E552E7CFD9FF1200D9CF01
:0E09D000E6FFE1CFD9FFE552E7CFD9FF1200D5
:0209DE00D9CF6F
:1009E000E6FFE1CFD9FFE652DF6A320E0001945DE7
:1009F00002E1000195930001945100080DE200010D
:100A00009251EA6A600FE96E000EEA22EFCFDFFF33
:100A10000001922B00019407320E0001925D02E169
:100A20000001926B0001945102E100019591DF50A9
:100A300000D0E552E552E7CFD9FF120000019551F1
:100A4000010B00D01200CBDF00D01200F7DF00D086
:100A50001200D9CFE6FFE1CFD9FFFD0EDBCFCDF0FD
:100A6000FE0EDBCFCEF0CA840001CC0501E0FCD73E
:100A70000001CC6BE552E7CFD9FF1200DACFE4FFDB
:100A8000E2CFDAFFE9CFE4FFEACFE4FFF6CFE4FFFD
:100A9000F7CFE4FFF5CFE4FFF3CFE4FFF4CFE4FFBB
:100AA000FACFE4FF00EE06F0020EE80403E3EECF17
:100AB000E4FFFBD700EE00F0040EE80403E3EECF02
:100AC000E4FFFBD7E652D9CFE6FFE1CFD9FFE652EC
:100AD0009E50020B1DE09D50020B1AE09E92CDC06D
:100AE00004F0CEC005F00406000E055A00010450C3
:100AF000CF5D0550D05905E20001CF2B000ED02369
:100B000007D0CA940001CF6BD06B0001010ECC6FEF
:100B10009E50200B2EE09D50200B2BE09E9A320E13
:100B20000001945D03E10001958515D0320E0001AE
:100B3000945D11E28AEC08F0E66E00019351EA6AD6
:100B4000600FE96E000EEA22E552E750EF6E0001F9
:100B5000932B0001942B320E0001945D02E1000101
:100B60009583320E0001935D02E10001936B000159
:100B70009581F2A20AD00001010ED16F00000000A1
:100B80000000F292000000000000E552E552E7CFBD
:100B9000D9FFE55200EE03F0040EE80403E3E5CFCD
:100BA000EDFFFBD700EE07F0020EE80403E3E5CF0C
:100BB000EDFFFBD7E5CFFAFFE5CFF4FFE5CFF3FF7D
:100BC000E5CFF5FFE5CFF7FFE5CFF6FFE5CFEAFF8D
:0A0BD000E5CFE9FFE5CFDAFF1100E1
:060BDA00010EE66EE66A62
:100BE00029EC05F0E552E5520001FC2B050E000151
:100BF000FC5D07E3000000000000000000000000B2
:100C0000FF0012000001FC6B1200C58AC588C5A850
:100C100002D0E3DFFCD7F6DF1200C584C5A402D002
:100C2000DCDFFCD7EFDF1200C580C5A002D0D5DF26
:100C3000FCD7E8DF00000000000012001F0EC51402
:100C400003E1C750040B02E0C8DFF8D7DBDF000088
:100C50000000000012000F0EC614080804E00F0E7A
:100C6000C6140B0801E1C586C7B002D0B6DFFCD7B9
:100C7000C9DFC95000D01200D9CFE6FFE1CFD9FFBC
:100C8000FC0EDBCFF3FFDB06F35000092AE0E3DFC5
:100C9000E66EFD0EDBCFE9FFDB2AFE0EDBCFEAFFBF
:100CA00001E3DB2AE552E750EF6EC5A602D095DFDF
:100CB000FCD7A8DFA1A602D0FF0E15D00F0EC614D8
:100CC000080804E00F0EC6140B080AE1FC0EDB5006
:100CD00007E0C59AC588C5A802D07FDFFCD792DFA0
:100CE000CFD7000E00D0E552E7CFD9FF1200D9CF01
:100CF000E6FFE1CFD9FFFE0EDB50C96EC6AE03D0D2
:100D0000FF0E30D02FD00F0EC614080816E00F0EBD
:100D1000C6140B0812E0C6889EB602D05EDFFCD770
:100D200071DFC750040B06E1C750010B03E1FE0E53
:100D300019D002D0000E16D015D00F0EC614080818
:100D400004E00F0EC6140B080DE1C7A002D045DF6A
:100D5000FCD758DF73DFC5AC03D0FE0E03D002D042
:100D6000000E00D0E552E7CFD9FF12009EB605D0A5
:100D700000000000000031DFF9D744DF0000000070
:100D800000009E961200800EE66E080EE66EC4EC21
:100D900008F0E552E552270EC86E1200F4DF12008B
:100DA000D9CFE6FFE1CFD9FFD950FD0FE96EFF0E95
:100DB000DA20EA6E010EEE1801E1ED5002E18A84BC
:100DC00001D08A94E552E7CFD9FF1200D9CFE6FFD0
:100DD000E1CFD9FFD950FD0FE96EFF0EDA20EA6EA0
:100DE000010EEE1801E1ED5002E18B8001D08B90F5
:100DF000E552E7CFD9FF1200D9CFE6FFE1CFD9FF07
:100E0000D950FD0FE96EFF0EDA20EA6E010EEE18E2
:100E100001E1ED5002E18B8201D08B92E552E7CFE8
:100E2000D9FF12008250040B01E0010E00D0120025
:100E3000D9CFE6FFE1CFD9FFD950FD0FE96EFF0E04
:100E4000DA20EA6E010EEE1801E1ED5002E18A822D
:100E500001D08A92E552E7CFD9FF12007E6A7F6AFD
:100E60009380F18CF28893948A9494908B809492DE
:0E0E70008B8293928A9294841200F0DF12001B
:020E7E000E0E56
:100E8000F66E000EF76E000EF86E00010900F550C8
:100E9000F76F0900F550F86F03E1F76701D03DD017
:100EA0000900F550F26F0900F550F36F0900F55095
:100EB000F46F09000900F550E96E0900F550EA6E7B
:100EC000090009000900F550F56F0900F550F66FAB
:100ED00009000900F6CFF9F0F7CFFAF0F8CFFBF0F0
:100EE000F2C0F6FFF3C0F7FFF4C0F8FF0001F553BE
:100EF00002E1F65307E00900F550EE6EF507F8E25F
:100F0000F607F9D7F9C0F6FFFAC0F7FFFBC0F8FF04
:0C0F10000001F707000EF85BBFD71200CD
:040F1C003400CE09C6
:100F200022097809860118104C0A460AA00DCC0D3A
:100F3000F80D300E240E520A9C0D40123A107A0E13
:100F40000000000009C898FC00000009C99498C975
:100F50001A1A40408E58260040401E8E7226267275
:100F6000000100008101810148580002232800810E
:100F70000081010302497200030000002002020206
:100F80000202020102020202020201010209C8FC7D
:100F900000008E3800404048380001280081008160
:100FA000010202020202483800002800810081018B
:100FB000ACA2FED70A0EE66EDFEC08F0E552ACA25A
:100FC000FED70D0EE66EDFEC08F0E5521200D9CF29
:100FD000E6FFE1CFD9FFECDFFD0EDBCFE6FFFE0E33
:100FE000DBCFE6FF64EC08F0E552E552E552E7CFCF
:100FF000D9FF1200670EE66EE66A7C0EE66E1FEC05
:1010000008F0E552E552E552AB8E948E949C9D9883
:101010009E9A9F8A9D8A1200D9CFE6FFE1CFD9FF21
:10102000FD0EDBCFE6FFFE0EDBCFE6FFD0DFE552A5
:0E103000E552E552E7CFD9FF1200DCDF1200D7
:02103E00D9CF08
:10104000E6FFDACFE6FFE1CFD9FFE2CFDAFFAC6A05
:10105000AB6AFD0EDBB0AC88DBA202D0AC8CAB8CF3
:10106000DBB4AC8EDBA602D0AB8801D0AB8ADBB898
:10107000AC849E98DBBAAB86DBAC02D09D8A01D0F3
:101080009D9A9E9ADBAE02D09D8801D09D98FB0E62
:10109000DB50AF6EFB0EFC0EDBCF01F001C000F0A9
:1010A000016A0050B06EAC8AAB8E949C948EAC50AA
:1010B000100B04E0AC50800B01E1948CE552E5CFBD
:0810C000DAFFE7CFD9FF1200AF
:0810C800D9CFE6FFDACFE6FF05
:1010D000E1CFD9FFE2CFDAFFACA2FED7FC0EDBCF27
:1010E000E9FFFD0EDBCFEAFFEF50E66EDFEC08F024
:1010F000E552FC0EDBCFE9FFDB2AFD0EDBCFEAFF7A
:1011000001E3DB2AEF50E8E1E552E5CFDAFFE7CF74
:04111000D9FF1200F1
:0C111400D9CFE6FFDACFE6FFE1CFD9FF2C
:10112000E2CFDAFFE652F20E0001FE17ABAC03D0BD
:10113000FE91ABB0FE81ABB4FE85ABB2FE87AE5084
:10114000DF6EDF50E552E552E5CFDAFFE7CFD9FF9A
:0211500012008B
:0E115200D9CFE6FFDACFE6FFE1CFD9FFE2CF3B
:10116000DAFFFD0EDB50FB0BCA6ECC6A9E92FD0EC1
:10117000DBAE02D09D8201D09D92CA84E552E5CFBC
:08118000DAFFE7CFD9FF1200EE
:08118800D9CFE6FFDACFE6FF44
:10119000E1CFD9FFE2CFDAFF3F0EC716C66AC56AB4
:1011A000FD0EDB50C612FC0EDB50C71294869488ED
:0E11B000C68AE552E5CFDAFFE7CFD9FF12007D
:0211BE00D9CF87
:1011C000E6FFDACFE6FFE1CFD9FFE2CFDAFFACAC42
:1011D00004D0AC900001FEB3AC80FD0EDB50AD6ED0
:0C11E000E552E5CFDAFFE7CFD9FF12009F
:0411EC00000EF36E90
:1011F00000EE00F0060E01D81200EA6002D0EE6A9E
:0C120000FCD7F350E9601200EE6AFCD746
:04120C0014EE00F0EC
:1012100024EE00F0F86A079C3FEC07F003EC00F0C6
:0812200004EC01F0FBD7120001
:08122800D08E9F82F28ECE0EE3
:10123000E66EA9EC08F0E552180ECB6ECA941200C7
:04124000F3DF1200C6
:0C1244000068656C6C6F20776F726C6442
:10125000210009C8FC008E5C0040C85C00280081A9
:05126000000201020282
:0B12650000000000000000000000007E
:10127000000000000000000000000000000000006E
:10128000000000000000000000000000000000005E
:10129000000000000000000000000000000000004E
:1012A000000000000000000000000000000000003E
:1012B000000000000000000000000000000000002E
:1012C000000000000000000000000000000000001E
:0612D00000000000000018
:0212D600000016
:020000040030CA
:0100010002FC
:0100020019E4
:010003001EDE
:010006008079
:00000001FF
