:020000040000FA
:0600000063EF0EF0120098
:020006001200E6
:0600080007EF0AF01200F0
:02000E000300ED
:10001000A31D0000DB00000002000000321D0000F4
:100020006000000071000000021D000000050000DB
:04003000300000009C
:0C003400D9CFE6FFE1CFD9FFFD0EDBCFF6
:10004000E9FFFE0EDBCFEAFFEECFF6FFEFCFF7FFC3
:10005000040EF626000EF7220900F5CF00F0080086
:10006000F5CF01F0100EE66EE66A110EE66E190E7F
:10007000E66EF40EE66E180EE66EE40EE66E180EF0
:10008000E66ED40EE66E180EE66E04D001C0FAFFDE
:100090000050F96EFBDF026E0A0EE15E0250FD0EAB
:1000A000DBCFE9FFFE0EDBCFEAFF060EE926000EEE
:1000B000EA22EF50010B32E0FD0EDBCFE9FFFE0E2E
:1000C000DBCFEAFFEECFF6FFEFCFF7FF040EF62609
:1000D000000EF7220900F5CF00F00800F5CF01F07F
:1000E000050EE66EE66A350EE66E190EE66E2B0E0E
:1000F000E66E190EE66E260EE66E190EE66E210EFF
:10010000E66E190EE66E04D001C0FAFF0050F96EDB
:10011000FBDF026E0A0EE15E025031D0FD0EDBCF36
:10012000E9FFFE0EDBCFEAFFEECFF6FFEFCFF7FFE2
:10013000040EF626000EF7220900F5CF00F00800A5
:10014000F5CF01F0050EE66EE66A350EE66E190E85
:10015000E66E3A0EE66E190EE66E260EE66E190E85
:10016000E66E210EE66E190EE66E04D001C0FAFFAF
:100170000050F96EFBDF026E0A0EE15E0250E5529E
:10018000E7CFD9FF1200D9CFE6FFE1CFD9FFE65282
:10019000DF6A050EDF5C28E2FD0EDBCFE9FFFE0E15
:1001A000DBCFEAFFEECFF6FFEFCFF7FF1E0EF6260E
:1001B000000EF722F6CF02F0F7CF03F0DF50020D6A
:1001C0000250F324F66E0350F420F76E0900F5CFC9
:1001D00000F00800F5CF01F004D001C0FAFF005094
:1001E000F96EFBDFDF2AD5D7FD0EDBCFE9FFFE0E70
:1001F000DBCFEAFF060EE926000EEA22EF90E55279
:10020000E552E7CFD9FF1200D9CFE6FFE1CFD9FF02
:10021000070EE126040EDB6A050EDB6A640EF36E40
:10022000060EF3CFDBFFFD0EDBCFE9FFFE0EDBCFCB
:10023000EAFFEECFF6FFEFCFF7FF0C0EF626000E2B
:10024000F7220900F5CF00F00800F5CF01F004D047
:1002500001C0FAFF0050F96EFBDFE76E050EE7CF35
:10026000DBFF050EDB0401E043D1040EDB50020A84
:1002700068E0030A39E0010A01E031D1FD0EDBCF6D
:10028000E9FFFE0EDBCFEAFFEECFF6FFEFCFF7FF81
:100290000E0EF626000EF7220900F5CF00F008003A
:1002A000F5CF01F004D001C0FAFF0050F96EFBDF7A
:1002B000E76E030EE7CFDBFF240E006E030EDB506C
:1002C000005C11E1D9CF00F0DACF01F0040EDB5071
:1002D0000F010024E96E000E0120EA6E030EDBCF51
:1002E000EFFF040EDB2A04D1FD0EDBCFE9FFFE0E8B
:1002F000DBCFEAFFEECFF6FFEFCFF7FF0E0EF626CD
:10030000000EF7220900F5CF02F00800F5CF03F048
:1003100004D003C0FAFF0250F96EFBDFE66ED9CFBE
:1003200000F0DACF01F0040EDB500F010024E96E7B
:10033000000E0120EA6EE552E750EF6E040EDB2A54
:10034000D7D0FD0EDBCFE9FFFE0EDBCFEAFFEECF0D
:10035000F6FFEFCFF7FF0E0EF626000EF72209008C
:10036000F5CF02F00800F5CF03F004D003C0FAFF88
:100370000250F96EFBDFE66ED9CF00F0DACF01F064
:10038000040EDB500F010024E96E000E0120EA6E1E
:10039000E552E750EF6E040EDB2A010EDB50410AF6
:1003A00041E0780A2AE0090A01E08FD0020EDB5012
:1003B000330A16E0010A0EE0030A06E0010A01E032
:1003C00015D0060EDB6A18D0010EF36E060EF3CFC1
:1003D000DBFF12D0020EF36E060EF3CFDBFF0CD064
:1003E000030EF36E060EF3CFDBFF06D0640EF36E42
:1003F000060EF3CFDBFF00D06ED0020EDB50310AC9
:1004000009E0010A01E00CD0C80EF36E060EF3CF2E
:10041000DBFF07D0C90EF36E060EF3CFDBFF01D072
:1004200000D059D0020EDB50390A47E0010A3FE004
:100430000F0A37E0010A2FE0030A27E0010A1FE054
:10044000070A17E0010A0FE0030A08E0010A01E0C9
:100450003AD0640E0501006F016B36D0C80E05015D
:10046000006F016B31D005012C0E006F010E016F82
:100470002BD00501900E006F010E016F25D00501F4
:10048000F40E006F010E016F1FD00501580E006FB2
:10049000020E016F19D00501BC0E006F020E016F34
:1004A00013D00501200E006F030E016F0DD0050162
:1004B000840E006F030E016F07D00501E80E006F78
:1004C000030E016F01D000D006D0640EF36E060E4D
:1004D000F3CFDBFF00D0060EDB500BD009D0640E4B
:1004E000F36E060EF3CFDBFF060EDB5002D000D01A
:1004F0009AD6006E070EE15C02E2E16AE552E16E17
:100500000050E552E7CFD9FF1200D9CFE6FFE1CF87
:10051000D9FFE652FD0EDBCFE6FFFE0EDBCFE6FF96
:1005200073DEE552E552DF6EDF50006E016AC80EE1
:10053000001801E1015003E1000E0ED00CD0DF5095
:10054000006E016AC90E001801E1015002E1FF00CE
:1005500002D0010E01D0DED7E552E552E7CFD9FF38
:100560001200D9CFE6FFE1CFD9FF030EE126DF6A03
:10057000010EDB6A020EDB6AFD0EDBCFE9FFFE0E29
:10058000DBCFEAFFEECFF6FFEFCFF7FF160EF62632
:10059000000EF7220900F5CF00F00800F5CF01F0BA
:1005A000010EE66EE66A04D001C0FAFF0050F96E53
:1005B000FBDFE552E552FD0EDBCFE9FFFE0EDBCFA0
:1005C000EAFFEECFF6FFEFCFF7FF1A0EF626000E8A
:1005D000F7220900F5CF00F00800F5CF01F000C5C3
:1005E000E6FF01C5E6FF04D001C0FAFF0050F96E36
:1005F000FBDFE552E552FD0EDBCFE9FFFE0EDBCF60
:10060000EAFFEECFF6FFEFCFF7FF1C0EF626000E47
:10061000F7220900F5CF00F00800F5CF01F004D073
:1006200001C0FAFF0050F96EFBDFDE52F3CFDEFFB0
:10063000F4CFDDFFDD52010EDBCF00F0020EDBCF89
:1006400001F0013404E20050A308030E015402E259
:10065000DF2A8AD0FD0EDBCFE9FFFE0EDBCFEAFFFB
:10066000EECFF6FFEFCFF7FF120EF626000EF722C1
:100670000900F5CF00F00800F5CF01F0000EE66E9E
:10068000E66A04D001C0FAFF0050F96EFBDFE552C4
:10069000E552FD0EDBCFE9FFFE0EDBCFEAFFEECF2A
:1006A000F6FFEFCFF7FF0A0EF626000EF72209003D
:1006B000F5CF00F00800F5CF01F0260EE66E050E2E
:1006C000E66E04D001C0FAFF0050F96EFBDFE55280
:1006D000E552FD0EDBCFE6FFFE0EDBCFE6FF15DFBA
:1006E000E552E552000901E0F4D7DF6AFD0EDBCFE9
:1006F000E9FFFE0EDBCFEAFFEECFF6FFEFCFF7FF0D
:10070000140EF626000EF7220900F5CF00F00800BF
:10071000F5CF01F0010EE66EE66A04D001C0FAFFE3
:100720000050F96EFBDFE552E552FD0EDBCFE9FF2D
:10073000FE0EDBCFEAFFEECFF6FFEFCFF7FF120E94
:10074000F626000EF7220900F5CF00F00800F5CFDD
:1007500001F0010EE66EE66A04D001C0FAFF005017
:10076000F96EFBDFE552E552FD0EDBCFE9FFFE0E31
:10077000DBCFEAFFEECFF6FFEFCFF7FF160EF62640
:10078000000EF7220900F5CF00F00800F5CF01F0C8
:10079000000EE66EE66A04D001C0FAFF0050F96E62
:1007A000FBDFE552E552FD0EDBCFE9FFFE0EDBCFAE
:1007B000EAFFEECFF6FFEFCFF7FF1A0EF626000E98
:1007C000F7220900F5CF00F00800F5CF01F000C5D1
:1007D000E6FF01C5E6FF04D001C0FAFF0050F96E44
:1007E000FBDFE552E552FD0EDBCFE9FFFE0EDBCF6E
:1007F000EAFFEECFF6FFEFCFF7FF1C0EF626000E56
:10080000F7220900F5CF00F00800F5CF01F004D081
:1008100001C0FAFF0050F96EFBDFDE52F3CFDEFFBE
:10082000F4CFDDFFDD52010EDBCF00F0020EDBCF97
:1008300001F0D890015004E64E0E005C020E015803
:1008400002E2DF2A8AD0FD0EDBCFE9FFFE0EDBCF0E
:10085000EAFFEECFF6FFEFCFF7FF120EF626000EFF
:10086000F7220900F5CF00F00800F5CF01F0000EE7
:10087000E66EE66A04D001C0FAFF0050F96EFBDFB5
:10088000E552E552FD0EDBCFE9FFFE0EDBCFEAFFBE
:10089000EECFF6FFEFCFF7FF0A0EF626000EF72297
:1008A0000900F5CF00F00800F5CF01F0260EE66E46
:1008B000050EE66E04D001C0FAFF0050F96EFBDFB2
:1008C000E552E552FD0EDBCFE6FFFE0EDBCFE6FF85
:1008D0001CDEE552E552000901E0F4D7DF6AFD0EA7
:1008E000DBCFE9FFFE0EDBCFEAFFEECFF6FFEFCF67
:1008F000F7FF140EF626000EF7220900F5CF00F0E0
:100900000800F5CF01F0010EE66EE66A04D001C0E2
:10091000FAFF0050F96EFBDFE552E552FD0EDBCF2A
:10092000E9FFFE0EDBCFEAFFEECFF6FFEFCFF7FFDA
:10093000120EF626000EF7220900F5CF00F008008F
:10094000F5CF01F0010EE66EE66A04D001C0FAFFB1
:100950000050F96EFBDFE552E552060EDF5C01E266
:100960009FD0FD0EDBCFE9FFFE0EDBCFEAFFEECF1F
:10097000F6FFEFCFF7FF140EF626000EF722090060
:10098000F5CF00F00800F5CF01F0000EE66EE66A44
:1009900004D001C0FAFF0050F96EFBDFE552E552CA
:1009A000FD0EDBCFE9FFFE0EDBCFEAFFEECFF6FF59
:1009B000EFCFF7FF0A0EF626000EF7220900F5CF5B
:1009C00000F00800F5CF01F0210EE66E050EE66E90
:1009D00004D001C0FAFF0050F96EFBDFE552E5528A
:1009E000FD0EDBCFE9FFFE0EDBCFEAFFEECFF6FF19
:1009F000EFCFF7FF1A0EF626000EF7220900F5CF0B
:100A000000F00800F5CF01F0E80EE66E030EE66E8A
:100A100004D001C0FAFF0050F96EFBDFE552E55249
:100A2000DF6AFD0EDBCFE9FFFE0EDBCFEAFFEECF84
:100A3000F6FFEFCFF7FF140EF626000EF72209009F
:100A4000F5CF00F00800F5CF01F0010EE66EE66A82
:100A500004D001C0FAFF0050F96EFBDFE552E55209
:100A6000FD0EDBCFE9FFFE0EDBCFEAFFEECFF6FF98
:100A7000EFCFF7FF120EF626000EF7220900F5CF92
:100A800000F00800F5CF01F0010EE66EE66A04D032
:100A900001C0FAFF0050F96EFBDFE552E55201D0CC
:100AA0006BD5030EE15C02E2E16AE552E16EE552CC
:100AB000E7CFD9FF1200D9CFE6FFE1CFD9FF080E6B
:100AC000E126070EDB6AAC0EDE6E180EDD6EDECFA1
:100AD000F6FFDDCFF7FF080EF626000EF72209001D
:100AE000F5CF00F00800F5CF01F0D9CFE6FFDACF5F
:100AF000E6FF04D001C0FAFF0050F96EFBDFE552BB
:100B0000E552DECFF6FFDDCFF7FF0A0EF626000E28
:100B1000F7220900F5CF00F00800F5CF01F0030E31
:100B2000E66E050EE66E04D001C0FAFF0050F96EC5
:100B3000FBDFE552E552DECFF6FFDDCFF7FF100E0B
:100B4000F626000EF7220900F5CF00F00800F5CFD9
:100B500001F0010EE66EE66A04D001C0FAFF005013
:100B6000F96EFBDFE552E552D9CFE6FFDACFE6FFBB
:100B7000CCDCE552E552000901E0F6D7DECFF6FF06
:100B8000DDCFF7FF0A0EF626000EF7220900F5CF9B
:100B900000F00800F5CF01F0080EE66E050EE66ED7
:100BA00004D001C0FAFF0050F96EFBDFE552E552B8
:100BB000D9CFE6FFDACFE6FF04EC01F0E552E552CB
:100BC000C90A01E15AD1CA0A01E11AD1010A01E1B7
:100BD000DAD0030A01E19BD0010A01E050D1DECF57
:100BE000F6FFDDCFF7FF0A0EF626000EF72209000A
:100BF000F5CF00F00800F5CF01F00D0EE66E050E02
:100C0000E66E04D001C0FAFF0050F96EFBDFE5523A
:100C1000E552DECFF6FFDDCFF7FF0A0EF626000E17
:100C2000F7220900F5CF00F00800F5CF01F0120E11
:100C3000E66E050EE66E04D001C0FAFF0050F96EB4
:100C4000FBDFE552E552D9CFE6FFDACFE6FF89DCDC
:100C5000E552E552DECFF6FFDDCFF7FF0A0EF626AE
:100C6000000EF7220900F5CF00F00800F5CF01F0E3
:100C7000170EE66E050EE66E04D001C0FAFF0050B6
:100C8000F96EFBDFE552E552D9CFE6FFDACFE6FF9A
:100C900068DCE552E552DECFF6FFDDCFF7FF0A0E46
:100CA000F626000EF7220900F5CF00F00800F5CF78
:100CB00001F01C0EE66E050EE66E04D001C0FAFFD0
:100CC0000050F96EFBDFE552E552D9CFE6FFDACFEF
:100CD000E6FF47DCE552E552DECFF6FFDDCFF7FF5A
:100CE0000A0EF626000EF7220900F5CF00F00800E4
:100CF000F5CF01F02B0EE66E050EE66E04D001C0B6
:100D0000FAFF0050F96EFBDFE552E552B9D0DECFB5
:100D1000F6FFDDCFF7FF0A0EF626000EF7220900D8
:100D2000F5CF00F00800F5CF01F0120EE66E050ECB
:100D3000E66E04D001C0FAFF0050F96EFBDFE55209
:100D4000E552D9CFE6FFDACFE6FF0BDCE552E552FC
:100D5000DECFF6FFDDCFF7FF0A0EF626000EF722F4
:100D60000900F5CF00F00800F5CF01F02B0EE66E7C
:100D7000050EE66E04D001C0FAFF0050F96EFBDFED
:100D8000E552E5527DD0DECFF6FFDDCFF7FF0A0E4C
:100D9000F626000EF7220900F5CF00F00800F5CF87
:100DA00001F0170EE66E050EE66E04D001C0FAFFE4
:100DB0000050F96EFBDFE552E552D9CFE6FFDACFFE
:100DC000E6FFB1EC02F0E552E552DECFF6FFDDCFF3
:100DD000F7FF0A0EF626000EF7220900F5CF00F005
:100DE0000800F5CF01F02B0EE66E050EE66E04D07E
:100DF00001C0FAFF0050F96EFBDFE552E55240D02A
:100E0000DECFF6FFDDCFF7FF0A0EF626000EF72243
:100E10000900F5CF00F00800F5CF01F01C0EE66EDA
:100E2000050EE66E04D001C0FAFF0050F96EFBDF3C
:100E3000E552E552D9CFE6FFDACFE6FFB1EC02F09A
:100E4000E552E552DECFF6FFDDCFF7FF0A0EF626BC
:100E5000000EF7220900F5CF00F00800F5CF01F0F1
:100E60002B0EE66E050EE66E04D001C0FAFF0050B0
:100E7000F96EFBDFE552E55203D0FF0001D000D050
:100E8000DECFF6FFDDCFF7FF0A0EF626000EF722C3
:100E90000900F5CF00F00800F5CF01F0080EE66E6E
:100EA000050EE66E04D001C0FAFF0050F96EFBDFBC
:100EB000E552E5527DD6080EE15C02E2E16AE552B8
:0A0EC000E16EE552E7CFD9FF120002
:060ECA00D9CFE6FFE1CFE5
:100ED000D9FF0A0EE126080EDB6A090EDB6A010E55
:100EE000DB6A020EDB6A010EDBCF00F0020EDBCF05
:100EF00001F0F50EDBCF02F0F60EDBCF03F002506F
:100F0000005C0350015801E3C9D0010EDBCF00F0B3
:100F1000020EDBCF01F0F70EDB500024F66EF80E68
:100F2000DB500120F76E0800070EF5CFDBFF010E46
:100F3000DBCF00F0020EDBCF01F0FD0EDB50002412
:100F4000F66EFE0EDB500120F76E0800030EF5CFA3
:100F5000DBFF010EDBCF00F0020EDBCF01F0FB0E5A
:100F6000DB500024F66EFC0EDB500120F76E08000B
:100F7000040EF5CFDBFF070EDB5002082BE1080E55
:100F8000DBCF00F0DB2A090EDBCF01F001E3DB2A27
:100F9000F90EDB500024F66EFA0EDB500120F76EDE
:100FA0000800050EF5CFDBFF080EDBCF00F0DB2AD3
:100FB000090EDBCF01F001E3DB2AF90EDB50002440
:100FC000F66EFA0EDB500120F76E0800060EF5CF24
:100FD000DBFF15D0080EDBCF00F0DB2A090EDBCFDC
:100FE00001F001E3DB2AF90EDB500024F66EFA0E65
:100FF000DB500120F76E0800050EF5CFDBFFE5ECB6
:101000000AF0DBEC0AF07DEC0BF0900EE66E3EECA5
:101010000BF0E552DF6E7DEC0BF0030EDBCFE6FF4D
:101020003EEC0BF0E552DF6E7DEC0BF0040EDBCFF7
:10103000E6FF3EEC0BF0E552DF6E7DEC0BF0070EA9
:10104000DB50020813E1050EDBCFE6FF3EEC0BF0B0
:10105000E552DF6E7DEC0BF0060EDBCFE6FF3EECDB
:101060000BF0E552DF6E7DEC0BF009D0050EDBCF07
:10107000E6FF3EEC0BF0E552DF6E7DEC0BF0D4ECBE
:101080000AF07DEC0BF0DFCF00F0003401E3FF004D
:10109000010EDB2A020E01E3DB2A25D70A0EE15CF2
:1010A00002E2E16AE552E16EE552E7CFD9FF1200B4
:1010B000D9CFE6FFE1CFD9FF0A0EE126080EDB6AA1
:1010C000090EDB6A010EDB6A020EDB6A010EDBCF62
:1010D00000F0020EDBCF01F0F50EDBCF02F0F60ED2
:1010E000DBCF03F00250005C0350015801E3C3D092
:1010F000010EDBCF00F0020EDBCF01F0F70EDB506C
:101100000024E96EF80EDB500120EA6E070EEFCFE7
:10111000DBFF010EDBCF00F0020EDBCF01F0FD0E96
:10112000DB500024E96EFE0EDB500120EA6E030E58
:10113000EFCFDBFF010EDBCF00F0020EDBCF01F0C3
:10114000FB0EDB500024E96EFC0EDB500120EA6E42
:10115000040EEFCFDBFF070EDB50020829E1080E7B
:10116000DBCF00F0DB2A090EDBCF01F001E3DB2A45
:10117000F90EDB500024E96EFA0EDB500120EA6E16
:10118000050EEFCFDBFF080EDBCF00F0DB2A090EE8
:10119000DBCF01F001E3DB2AF90EDB500024E96E1E
:1011A000FA0EDB500120EA6E060EEFCFDBFF14D003
:1011B000080EDBCF00F0DB2A090EDBCF01F001E3E4
:1011C000DB2AF90EDB500024E96EFA0EDB50012019
:1011D000EA6E050EEFCFDBFFE5EC0AF0DBEC0AF080
:1011E0007DEC0BF0900EE66E3EEC0BF0E552DF6E00
:1011F0007DEC0BF0030EDBCFE6FF3EEC0BF0E5528F
:10120000DF6E7DEC0BF0040EDBCFE6FF3EEC0BF067
:10121000E552DF6E7DEC0BF0070EDB50020813E1A8
:10122000050EDBCFE6FF3EEC0BF0E552DF6E7DEC0A
:101230000BF0060EDBCFE6FF3EEC0BF0E552DF6E67
:101240007DEC0BF009D0050EDBCFE6FF3EEC0BF09A
:10125000E552DF6E7DEC0BF0D4EC0AF07DEC0BF088
:10126000DFCF00F0003401E3FF00010EDB2A020EA5
:1012700001E3DB2A2BD70A0EE15C02E2E16AE552C8
:10128000E16EE552E7CFD9FF1200D9CFE6FFE1CFFB
:10129000D9FFF50EDBCFE6FFF60EDBCFE6FFF70E4C
:1012A000DBCFE6FFF80EDBCFE6FFF90EDBCFE6FF84
:1012B000FA0EDBCFE6FFFB0EDBCFE6FFFC0EDBCF4B
:1012C000E6FFFD0EDBCFE6FFFE0EDBCFE6FFFDDD2A
:1012D000006E0A0EE15E0050E552E7CFD9FF120022
:1012E000D9CFE6FFE1CFD9FFF50EDBCFE6FFF60E53
:1012F000DBCFE6FFF70EDBCFE6FFF80EDBCFE6FF36
:10130000F90EDBCFE6FFFA0EDBCFE6FFFB0EDBCFFD
:10131000E6FFFC0EDBCFE6FFFD0EDBCFE6FFFE0EA9
:10132000DBCFE6FFC5DE006E0A0EE15E0050E5523F
:10133000E7CFD9FF1200D9CFE6FFE1CFD9FFE552C1
:06134000E7CFD9FF120007
:0A134600D9CFE6FFE1CFD9FFE65250
:10135000DF6A320E0001945D02E100019593000105
:10136000945100080DE200019251EA6A600FE96EA3
:10137000000EEA22EFCFDFFF0001922B000194075D
:10138000320E0001925D02E10001926B0001945166
:1013900002E100019591DF5000D0E552E552E7CF20
:1013A000D9FF120000019551010B00D01200CBDFD4
:1013B00000D01200F7DF00D01200D9CFE6FFE1CF56
:1013C000D9FFFD0EDBCFCDF0FE0EDBCFCEF0D58EFC
:1013D0000001CC0501E0FCD70001CC6BE552E7CF62
:1013E000D9FF1200D9CFE6FFE1CFD9FFFD0EDBCF49
:1013F000CDF0FE0EDBCFCEF0CA840001CC0501E0BB
:10140000FCD70001CC6BE552E7CFD9FF1200DACF51
:10141000E4FFE2CFDAFFE9CFE4FFEACFE4FFF6CF63
:10142000E4FFF7CFE4FFF5CFE4FFF3CFE4FFF4CF21
:10143000E4FFFACFE4FF00EE06F0020EE80403E357
:10144000EECFE4FFFBD700EE00F0040EE80403E368
:10145000EECFE4FFFBD7E652D9CFE6FFE1CFD9FFCD
:10146000E6529E50200B2EE09D50200B2BE09E9AC2
:10147000320E0001945D03E10001958515D0320E16
:101480000001945D11E2B7EC0DF0E66E000193519E
:10149000EA6A600FE96E000EEA22E552E750EF6E4D
:1014A0000001932B0001942B320E0001945D02E1A8
:1014B00000019583320E0001935D02E10001936B00
:1014C00000019581F2A204D00501010E026FF29293
:1014D000F2A422D05F0EE66EF00EE66ED6EC0DF0B2
:1014E000E552E552F294CDC004F0CEC005F00406FA
:1014F000000E055A00010450CF5D0550D05905E299
:101500000001CF2B000ED02307D0D59E0001CF6B5A
:10151000D06B0001010ECC6FE552E552E7CFD9FF49
:10152000E55200EE03F0040EE80403E3E5CFEDFF1F
:10153000FBD700EE07F0020EE80403E3E5CFEDFF72
:10154000FBD7E5CFFAFFE5CFF4FFE5CFF3FFE5CF1B
:10155000F5FFE5CFF7FFE5CFF6FFE5CFEAFFE5CFF3
:08156000E9FFE5CFDAFF1100FD
:08156800010EE66EE66AF2ECEA
:1015700009F0E552E5520001DB2B050E0001DB5DB1
:1015800007E3000000000000000000000000FF0072
:1015900012000001DB6B1200C58AC588C5A802D005
:1015A000E3DFFCD7F6DF1200C584C5A402D0DCDF80
:1015B000FCD7EFDF1200C580C5A002D0D5DFFCD775
:1015C000E8DF00000000000012001F0EC51403E158
:1015D000C750040B02E0C8DFF8D7DBDF00000000D3
:1015E000000012000F0EC614080804E00F0EC61407
:1015F0000B0801E1C586C7B002D0B6DFFCD7C9DF52
:10160000C95000D01200D9CFE6FFE1CFD9FFFC0EC0
:10161000DBCFF3FFDB06F35000092AE0E3DFE66EE1
:10162000FD0EDBCFE9FFDB2AFE0EDBCFEAFF01E395
:10163000DB2AE552E750EF6EC5A602D095DFFCD756
:10164000A8DFA1A602D0FF0E15D00F0EC614080801
:1016500004E00F0EC6140B080AE1FC0EDB5007E095
:10166000C59AC588C5A802D07FDFFCD792DFCFD747
:10167000000E00D0E552E7CFD9FF1200D9CFE6FF28
:10168000E1CFD9FFFE0EDB50C96EC6AE03D0FF0E10
:1016900030D02FD00F0EC614080816E00F0EC61457
:1016A0000B0812E0C6889EB602D05EDFFCD771DF61
:1016B000C750040B06E1C750010B03E1FE0E19D021
:1016C00002D0000E16D015D00F0EC614080804E084
:1016D0000F0EC6140B080DE1C7A002D045DFFCD7E2
:1016E00058DF73DFC5AC03D0FE0E03D002D0000E6E
:1016F00000D0E552E7CFD9FF12009EB605D000001A
:101700000000000031DFF9D744DF000000000000D6
:101710009E961200800EE66E080EE66E0EEC0EF03F
:0E172000E552E552270EC86E1200F4DF1200EB
:02172E00D9CF11
:10173000E6FFE1CFD9FFD950FD0FE96EFF0EDA20A9
:10174000EA6E010EEE1801E1ED5002E18A8401D04B
:101750008A94E552E7CFD9FF1200D9CFE6FFE1CF57
:10176000D9FFD950FD0FE96EFF0EDA20EA6E010EA7
:10177000EE1801E1ED5002E18B8001D08B90E55233
:10178000E7CFD9FF1200D9CFE6FFE1CFD9FFD9507B
:10179000FD0FE96EFF0EDA20EA6E010EEE1801E190
:1017A000ED5002E1898801D08998E552E7CFD9FF51
:1017B00012008250040B01E0010E00D01200D9CFBC
:1017C000E6FFE1CFD9FFD950FD0FE96EFF0EDA2019
:1017D000EA6E010EEE1801E1ED5002E18A8201D0BD
:1017E0008A92E552E7CFD9FF12007E6A7F6A938022
:1017F000F18CF28893948A9494908B809298898843
:0E18000093928A9293887F861200EFDF120087
:02180E000E0EBC
:10181000F66E000EF76E000EF86E00010900F5502E
:10182000D66F0900F550D76F03E1D66701D03DD0E0
:101830000900F550D16F0900F550D26F0900F5503D
:10184000D36F09000900F550E96E0900F550EA6E02
:10185000090009000900F550D46F0900F550D56F53
:1018600009000900F6CFD8F0F7CFD9F0F8CFDAF0B9
:10187000D1C0F6FFD2C0F7FFD3C0F8FF0001D453A8
:1018800002E1D55307E00900F550EE6ED407F8E207
:10189000D507F9D7D8C0F6FFD9C0F7FFDAC0F8FFEF
:0C18A0000001D607000ED75BBFD7120076
:0418AC0034003613BB
:1018B0008A12E0128601AC19B413AE132E175A1710
:1018C0008617BE17B217BA13261B2A17A21CCE19E9
:1018D0000A186A1B0000000009C898FC00000009F3
:1018E000C99498C91A1A40408E58260040401E8E4E
:1018F0007226267200010000810181014858000211
:1019000023280081008101030249720003000000C6
:10191000200202020202020102020202020201018C
:101920000209C8FC00008E380040404838000128F9
:1019300000810081010202020202483800002800F2
:0419400081008101A0
:0C194400ACA2FED70A0EE66E29EC0EF0F5
:10195000E552ACA2FED70D0EE66E29EC0EF0E55274
:101960001200D9CFE6FFE1CFD9FFECDFFD0EDBCFD0
:10197000E6FFFE0EDBCFE6FF6DEC0DF0E552E55223
:10198000E552E7CFD9FF1200670EE66EE66A7C0EDD
:10199000E66EE9EC0CF0E552E552E552AB8E948E22
:1019A000949C9D989E9A9F8A9D8A1200D9CFE6FFAB
:1019B000E1CFD9FFFD0EDBCFE6FFFE0EDBCFE6FF6A
:1019C000D0DFE552E552E552E7CFD9FF1200DCDF68
:0219D000120003
:0E19D200D9CFE6FFDACFE6FFE1CFD9FFE2CFB3
:1019E000DAFFAC6AAB6AFD0EDBB0AC88DBA202D0DA
:1019F000AC8CAB8CDBB4AC8EDBA602D0AB8801D058
:101A0000AB8ADBB8AC849E98DBBAAB86DBAC02D089
:101A10009D8A01D09D9A9E9ADBAE02D09D8801D00E
:101A20009D98FB0EDB50AF6EFB0EFC0EDBCF01F082
:101A300001C000F0016A0050B06EAC8AAB8E949C7D
:101A4000948EAC50100B04E0AC50800B01E1948CF0
:0C1A5000E552E5CFDAFFE7CFD9FF120026
:041A5C00D9CFE6FFF9
:101A6000DACFE6FFE1CFD9FFE2CFDAFFC26AC16A7F
:101A7000C06AFC0EDB407F0B3C0BC26EFC0EDB38F9
:101A8000F00B300BC112FD0EDB50040DF350380B80
:101A9000016EFD0EDB380F0B070B006EFD0EDB50E9
:101AA000800B00100110C06EFA0EDB507E6EFA0E35
:101AB000FB0EDBCF01F001C000F0016A00507F6E29
:101AC000FC0EDBAE03D09E9C9D8CF28CC280E55256
:0A1AD000E5CFDAFFE7CFD9FF1200DF
:061ADA00D9CFE6FFDACFD0
:101AE000E6FFE1CFD9FFE2CFDAFFACA2FED7FC0ED2
:101AF000DBCFE9FFFD0EDBCFEAFFEF50E66E29EC0E
:101B00000EF0E552FC0EDBCFE9FFDB2AFD0EDBCF4A
:101B1000EAFF01E3DB2AEF50E8E1E552E5CFDAFF27
:061B2000E7CFD9FF12001F
:0A1B26007FEC0EF07AEC0EF00009DF
:101B300001E0FBD771EC0EF000D01200000EE66E53
:101B4000E66A5C0EE66EAF0EE66E2EEC0DF0E55228
:101B5000E552E552E552020EE66EE66AF2EC09F055
:0E1B6000E552E5527FEC0EF01200E8DF1200B5
:021B6E00D9CFCD
:101B7000E6FFDACFE6FFE1CFD9FFE2CFDAFFE652A8
:101B8000F20E0001DD17ABAC03D0DD91ABB0DD810F
:101B9000ABB4DD85ABB2DD87AE50DF6EDF50E55212
:0C1BA000E552E5CFDAFFE7CFD9FF1200D5
:041BAC00D9CFE6FFA8
:101BB000DACFE6FFE1CFD9FFE2CFDAFFE652E65215
:101BC000FC0EDBCFDEFFDBCFDDFF010EDB50D76E7F
:101BD000DF50D66EE552E552E552E5CFDAFFE7CFAA
:041BE000D9FF120017
:0C1BE400D9CFE6FFDACFE6FFE1CFD9FF52
:101BF000E2CFDAFFFD0EDB507F0BD56ED76AD66AD7
:101C0000F294FD0EDBAE02D0F28A01D0F29AD58EAC
:0C1C1000E552E5CFDAFFE7CFD9FF120064
:041C1C00D9CFE6FF37
:101C2000DACFE6FFE1CFD9FFE2CFDAFF3F0EC716EA
:101C3000C66AC56AFD0EDB50C612FC0EDB50C71229
:101C400094869488C68AE552E5CFDAFFE7CFD9FFBC
:021C5000120080
:0E1C5200D9CFE6FFDACFE6FFE1CFD9FFE2CF30
:101C6000DAFFACAC04D0AC900001DDB3AC80FD0E6B
:101C7000DB50AD6EE552E5CFDAFFE7CFD9FF1200BA
:101C8000D08EF28EF1849F0EE66EF2EC0DF0E552EE
:101C90005F0EE66EF00EE66ED6EC0DF0E552E55204
:061CA0001200EEDF12004D
:0A1CA600000EF36E00EE00F0060ED3
:101CB00001D81200EA6002D0EE6AFCD7F350E96066
:061CC0001200EE6AFCD7E1
:0A1CC60014EE00F024EE00F0F86ABE
:101CD000079C07EC0CF003EC00F05BEC05F0FBD785
:021CE0001200F0
:0E1CE200C450036E026AC3500210F36E03C0BA
:041CF000F4FF1200EB
:0A1CF400C250020B01E0010E1200C5
:021CFE00C282A0
:021D00001200CF
:0E1D02000000002466303000246630310024DA
:101D10006630320024663033002466303400246696
:101D200030350024663036002466303700246630B3
:021D3000380079
:0E1D32000000000000000000000000000000A3
:101D40000000000000000000000000000000000093
:101D50000000000000000000000000000000000083
:101D60000000000000000000000000000000000073
:101D70000000000000000000000000000000000063
:101D80000000000000000000000000000000000053
:101D90000000000000000000000000000000000043
:031DA00000000040
:021DA30000003E
:020000040030CA
:0100010002FC
:0100020019E4
:010003001EDE
:010006008079
:00000001FF
